:020000040800F2
:10000000600B0020ED010008EF540008D546000801
:10001000ED540008F90800084D6D000800000000CC
:10002000000000000000000000000000A9570008C8
:100030006B0A000800000000F1540008AB570008EC
:10004000070200080702000807020008070200086C
:10005000070200080702000807020008070200085C
:100060006D0A000807020008730A000889090008E1
:1000700095090008A1090008AD0900080702000859
:1000800007020008070200083907000807020008F5
:10009000070200080702000807020008790A0008A2
:1000A000070200080702000807020008070200080C
:1000B00007020008070200080702000807020008FC
:1000C00007020008E1460008D946000807020008B8
:1000D000070200080702000807020008416D000837
:1000E00007020008070200080702000807020008CC
:1000F0000702000807020008070200085507000869
:10010000070200080702000807020008F55400086B
:100110000702000807020008695A0008615F00082A
:10012000070200080702000807020008070200088B
:10013000070200086107000807020008070200081C
:1001400007020008FD08000807020008070200086F
:10015000070200080702000807020008070200085B
:10016000070200080702000807020008070200084B
:10017000070200080702000807020008070200083B
:10018000070200080702000807020008070200082B
:10019000070200080000000007020008070200082C
:1001A000070200080702000807020008070200080B
:1001B00007020008070200080702000807020008FB
:1001C00007020008070200080702000807020008EB
:1001D0000702000807020008DFF80CD000F09AFAC6
:1001E0000048004711740008600B00200648804753
:1001F00006480047FEE7FEE7FEE7FEE7FEE7FEE70C
:10020000FEE7FEE7FEE7FEE731580008D9010008E7
:100210002DE9F05F0546002092469B46884606463B
:10022000814640241BE0284641464746224600F0CE
:10023000F2F953465A46C01A914110D31146184656
:10024000224600F0D9F92D1A67EB01084F462246E5
:100250000120002100F0D0F917EB00094E41201ECB
:10026000A4F10104DFDC484631462A464346BDE896
:10027000F09FD2B201E000F8012B491EFBD270477B
:100280000022F6E710B513460A4604461946FFF762
:10029000F0FF204610BD2DE9FE4F804681EA0300A5
:1002A000C00F0C46009021F0004123F00045B8EB50
:1002B0000200A94105D24046214690461C460B4605
:1002C000024623F00040104347D0270DC7F30A0031
:1002D000C3F30A510290401A019040286BDAC3F32D
:1002E000130040F4801B0098924620B10023D2EB0B
:1002F000030A63EB0B0B01985946C0F140025046CC
:1003000000F07AF906460D4650465946019A00F02B
:1003100092F910EB08006141002487EA115284EA47
:10032000E7731A4340D0009A62B3019A012A4FEA58
:10033000075215DC001B61EB02014FF0004202EA9C
:100340000752CDE90042001C41F5801132462B4690
:1003500000F092F903B0BDE8F08F40462146F9E77E
:10036000001B61EB0201001C41F5801300185B418A
:100370002018A2F5001747EB030140EAD570B61923
:100380006D4111E06D084FEA360645EAC0754FEA47
:100390000752001B61EB0201001C41F58011490866
:1003A0004FEA30000019514132462B4603B0BDE8F8
:1003B000F04F00F052B90098012240000023D0EB2A
:1003C000020263EBE073009821464FEAE074B8EB59
:1003D000000061EB0401E9E783F000435BE781F093
:1003E000004158E72DE9FE4F81EA030404F0004480
:1003F00021F0004100944FF0000B23F0004350EA3D
:1004000001045ED052EA03045BD0C3F30A54C1F383
:100410000A552C44A4F2F3340194A0FB0254C1F316
:10042000130141F48011C3F3130343F4801301FB60
:10043000024400FB034E840A970A44EA815447EAC7
:100440008357A4FB076802958D0A05FB07854FEAD1
:10045000932C04FB0C542705029D4FEA065847EAEB
:100460001637B5EB08056EEB070C870E920E47EAC0
:10047000811742EA8312A7FB0201B6EB0B0164EB82
:1004800000042B0D43EA0C335E1844EB1C50DA4693
:100490005146E7FB0201C5F313044FEA0B3343EA6D
:1004A00014534FEA0432019C43EA0603A4F10C04FE
:1004B0000294009CCDE900B400F0DEF803B0BDE882
:1004C000F08F00200146F9E730B5041E71F10004F9
:1004D00004DB4FF00044404264EB0101141E73F151
:1004E000000405DB1C464FF00043524263EB04035B
:1004F000801A994101D3012030BD002030BD30B5B4
:10050000041E71F1000404DB4FF00044404264EB30
:100510000101141E73F1000405DB1C464FF000437B
:10052000524263EB0403101A8B4101D2012030BD0B
:10053000002030BD30B5041E71F1000404DB4FF023
:100540000044404264EB0101141E73F1000405DB1A
:100550001C464FF00043524263EB0403101A8B41D8
:1005600001D3012030BD002030BD30B5041E71F133
:10057000000404DB4FF00044404264EB0101141E10
:1005800073F1000405DB1C464FF00043524263EB5D
:100590000403801A994101D2012030BD002030BDF2
:1005A0000EB540F2334102910021CDE900110A4617
:1005B0000B4600F061F803B000BD70B5C1F30A52FC
:1005C00001F000450024C1F3130140F2FF3341F470
:1005D00080119A4201DA002070BD40F233439A4202
:1005E000A2F2334203DC524200F015F800E09040E2
:1005F0002C43F1D0404270BD202A04DB203A00FA9F
:1006000002F1002070479140C2F1200320FA03F369
:10061000194390407047202A04DB203A21FA02F067
:100620000021704721FA02F3D040C2F1200291402C
:10063000084319467047202A06DBCB17203A41FAB7
:1006400002F043EAE07306E041FA02F3D040C2F15F
:100650002002914008431946704710B5141E73F1EB
:10066000000408DA401C41F1000192185B411A4372
:1006700001D120F0010010BD2DE9F04D92469B46BE
:1006800011B1B1FA81F202E0B0FA80F22032904664
:10069000FFF7B2FF04460F4640EA0A0041EA0B01A9
:1006A00053465A46084313D0114653EA010019D065
:1006B000C8F140025046FFF7AEFF05460E465046D1
:1006C00059464246FFF798FF084305D0012004E051
:1006D00020463946BDE8F08D0020054346EAE07625
:1006E0002C4337430A986305E40AA0EB0800002274
:1006F000FD0A44EA47540A3002D500200146E9E7E2
:10070000010510196941DDE9084500196941BDE895
:10071000F04DA2E7064C074D06E0E06840F001030B
:1007200094E8070098471034AC42F6D3FFF758FD21
:10073000048100082481000880B5044800F07EFD93
:100740000348BDE8804000F079BD00BF50020020A2
:10075000BC020020014800F071BD00BF280300204A
:10076000014800F06BBD00BF9403002070B5044643
:10077000006882688368DB0843EA9202D20750D09F
:10078000C26892010FD5627F012A0CD1227F012A13
:1007900009D1254A4FF0FF3103685B0607D40131C8
:1007A0009142F9D333E0022904D1022111E0402122
:1007B000016001218268520707D58268920704D43C
:1007C00082684C4B1A4010328260012901D1042604
:1007D00011E08268120707D58268920704D4826804
:1007E000444B1A40203282600426022908BF0826A2
:1007F000032908BF0C2601F097FE05462068806893
:1008000030420ED001F090FE401B0628F6D3E06D7A
:1008100040F01000E065206E40F0010020660120ED
:1008200070BD002070BD00BF000040A3B0B50168DE
:10083000044688688A6880074FF0000026D412F0CA
:10084000010208BFB0BD886800F00D00012814D176
:100850008868284A1040023088600320086001F050
:1008600063FE054620688068C00704BF0020B0BD55
:1008700001F05AFE401B0328F4D3E06D40F0100055
:10088000E065206E40F0010020660120B0BD00BF91
:1008900070B5044600688168C90728D1154E816883
:1008A00006F17F02114218D18168314041F0010107
:1008B000816001F039FE054620680168C90716D13C
:1008C0008168C90704D18168314041F0010181602C
:1008D00001F02AFE401B0328EED3E06D40F010002B
:1008E000E065206E40F001002066012070BD002010
:1008F00070BD00BFC0FFFF7FFEE70000014801F0B0
:10090000D3B800BF78010020F8B502468DF80F007B
:10091000102001210DF10F03CDE90031029019489B
:100920005221012301F0E0FE9DF80F0004B080BDCC
:10093000FEB5144D0446002002260DF10A07ADF85D
:100940000A002846522122460123CDE9007601F013
:1009500085FF0028F5D1BDF80A0003B0F0BD00BF47
:10096000F8B502468DF80F10102001210DF10F038C
:10097000CDE90031029003485221012302F006F82C
:100980008FBD00BF80050020014801F0B6BA00BF4E
:10099000C0040020014801F0B0BA00BF20050020CB
:1009A000014801F0AABA00BF00040020014801F08C
:1009B000A4BA00BF6004002010B5104C04F18002FE
:1009C000A4F57E712034C2640268436C8A4223F02D
:1009D00003013CBF40F60004C4F2020421448164D8
:1009E0006FF0070151FA82F11422B1FBF2F10122FA
:1009F00001F01F0102FA01F1016510BD000802407B
:100A0000037907490122013B01F1400C01EB83010D
:100A100003F01F039A40C0E9151CC265704700BF70
:100A20000009024010B5D0E913CE0124CCF804E04F
:100A3000D0F854C0BCF1000F1CBFD0E916CECCF8E2
:100A400004E0D0E910CE0EF01F0E04FA0EF4CCF83C
:100A500004400468636080681028084608BF104698
:100A6000A06008BF0A46E26010BD7047042001F094
:100A70007DBC102001F07ABC10B5054C4020A04789
:100A80008020A0474FF400702146BDE81040084781
:100A90006D23000870470000BCB50446002001909B
:100AA00094F85800012801D1022034E001200D46BD
:100AB00084F858002046FFF7B9FEE16D10B141F00F
:100AC000100124E041F20212144B91430231E1651E
:100AD00021688A681A4005F080431A4402F10042F6
:100AE0008A600F4A8B68B3F1FF3F0CDC019B013336
:100AF0000193019B9342F5D3E06D40F0100020F08C
:100B00000201012003E0E16D012262F301010022F4
:100B100084F85820E16502B0B0BD00BFC0FFFF3FC0
:100B200002DE04007047704770477047704700004E
:100B300090F85820012A01D1022176E070B50122F7
:100B40003B4E80F85820036806F1F804B3F1A04F3B
:100B500005D0384A93422CD106F59F6200E0224628
:100B600092689D682A43520723D406F53E72A34239
:100B7000144618BF06F5DF64B3F1A04F08BF144652
:100B8000D1F800C0A26822F4604EBCF1000F16D06C
:100B90004A6890F8385042EA0E0242EA4532A260B2
:100BA00043F48072E84B9A4214D13368D6F800E1DE
:100BB00018E0C16D41F02001C165012130E0E24A39
:100BC00043F48071C4F808E0914218D13168D6F836
:100BD00000311CE0D6F80024D6F8003543EA020EB6
:100BE000D6F800364EEA0302D20718D1A268896807
:100BF00040F61F739A4341EA0C0111430EE0D6F808
:100C00000014D6F8002542EA0103D6F8001619436D
:100C1000C90704D1A16840F61F729143A160002169
:100C2000002280F85820BDE870400846704700BF99
:100C30000800005000040050F8B504460020009061
:100C400094F85800012801D1022070E101200D46DE
:100C500084F8580020688168490726D4D5E9001235
:100C60001F2702F01F03C2F3012200EB82029F4004
:100C7000166BC1F38461994026EA07073943116373
:100C800081688268D20842EA9101C90740F0AC80CD
:100C9000AA682968B2F1004F0DD1002204F016FCB9
:100CA0002068416941F000410BE0E06D40F0200018
:100CB000E065012038E104F009FC2068416921F079
:100CC00000414161D5E90412C368042923D1016EB2
:100CD000076E2B68984A1946C3F3846E93FAA3F300
:100CE000B3FA83F66FF3DF413346002908BF73463A
:100CF000C7F384679F423AD1016E944621F00041C8
:100D000001662B6803EA0201C3F3846E93FAA3F32E
:100D1000B3FA83F62CE000F16006D5F800C0854FE9
:100D200056F821E00EEA070E062707EA93039A40D9
:100D30000CF0F8431A4342EA0E0242F0004246F831
:100D400021202969AA6956F8213023F080731A43BB
:100D500046F821202A69297F56F82230012923F0FC
:100D6000007308BF03F1007346F822303CE094465C
:100D7000436E0029334608BF7346476EC7F3846746
:100D80009F420DD1416E21F00041416661462B68C2
:100D900003EA0C01C3F3846E93FAA3F3B3FA83F668
:100DA000836E0029334608BF7346876EC7F3846796
:100DB0009F420CD1816E21F0004181662B6803EACD
:100DC0000C01C3F3846E93FAA3F3B3FA83F6C36EF4
:100DD000002908BF7646C16EC1F38461B14202BFEB
:100DE000C16E21F00041C1668168C9073AD1296806
:100DF000EB68D0F8B0700A4603F018066FF3DF42D4
:100E000027EA020C4C4FF7404C4E174047EA0C07BC
:100E1000B342C0F8B07025D1C1F3846391FAA1F157
:100E2000002A474E18BFB1FA81F3591C01F01E0287
:100E300001F01F010A2A4FF0010201EB410702FAFB
:100E400001F14FF0806206EB075602EB836246F039
:100E5000007602F0F84238BF3E051143AA683143DC
:100E600004F034FB2968374801425CD036482668D4
:100E7000364F00F5007286428646134618BF00F5CD
:100E8000C0631846B6F1A04F08BF10468568B94246
:100E900005F0E07C02D02E4FB94220D1280242D486
:100EA000B6F1A04F03D02B4886423CD11A46906839
:100EB0002A4920F0E07040EA0C0040F40000906005
:100EC00025480068B0FBF1F000EB4000800001E035
:100ED00000980138009000980028F9D123E0204FB5
:100EE000B94208BF15F0807715D01E4F0020B942D7
:100EF00008BF15F4800117D1B6F1A04F02D0764596
:100F000011D01A46906820F0E07040EA0C0040F4DE
:100F10008000906007E0816821F0E07141EA0C01F7
:100F200041F0807181600020002184F8581001B0E8
:100F3000F0BD00BF00F0FF03FFFF070000007F408F
:100F4000000020FE0000088000010050000021C3C6
:100F50001000C090000600500C000020400D03005F
:100F6000000052C7000084CB2DE9F0472DED028B25
:100F7000A949884224D0A94988422CD0A84988424E
:100F800034D0A849884240F0DD80A64800F053F9EB
:100F9000FFF706FB9FED780B41EC180B53EC102B81
:100FA000FFF720FA9FED760B53EC102BFFF773F948
:100FB0009D4A41EC100B82ED140B82ED168BC1E0C3
:100FC000954800F038F99949A1F872009848808A4C
:100FD000A1F87A00B6E0914800F02DF99349A1F804
:100FE00052009348808AA1F85A00ABE08C4800F088
:100FF00022F9FFF7D5FA9FED640B41EC180B53EC87
:10100000102BFFF7EFF99FED621BDFF81CA241ECFC
:10101000100B05460C4656EC117B8AED100B8AED41
:10102000128B3A463346FFF74FFAC8B99FED5A0B79
:101030002846214653EC102BFFF77CFA80B99FED30
:10104000720B2846214653EC102BFFF724F99FED35
:101050005C0B53EC102BFFF7C5F99FED6D0B65E0B2
:101060009FED4F0B2846214658EC109B4A464346BD
:10107000FFF72AFAB8B9284621463A463346FFF721
:1010800074FA80B99FED5C0B2846214653EC102B77
:10109000FFF701F99FED540B53EC102BFFF7A2F96A
:1010A0009FED570B42E09FED400B2846214656EC42
:1010B000107B3A463346FFF707FAB8B9284621466F
:1010C0004A464346FFF751FA80B99FED450B284643
:1010D000214653EC102BFFF7DEF89FED430B53EC4A
:1010E000102BFFF77FF99FED420B1FE09FED300BB8
:1010F0002846214653EC102BFFF7E6F930BB284673
:1011000021463A463346FFF730FAF8B99FED2E0BE9
:101110002846214653EC102BFFF7BDF89FED2C0B12
:1011200053EC102BFFF75EF99FED2B0B53EC102BBC
:10113000FFF7B1F8FFF741FAFFF732FA41EC100B75
:101140008AED0E0BBDEC028BBDE8F0879FED1A0B0C
:101150002846214653EC102BFFF79DF89FED180B06
:1011600053EC102BFFF73EF9012241EC100B8AF8EB
:101170006020E5E700BF00BF7380608E1EBFA73F01
:1011800000000000000044C0DF6C73637AC2623F5D
:101190006666666666661E403333333333332140FA
:1011A000CDCCCCCCCCCC1C400000000000001C40BE
:1011B0000000000000001A4000000000000018C0FD
:1011C00000000000000034400000000000001AC0D1
:1011D0000000000000004440000000000000244027
:1011E0000000000000001CC000000000000059408A
:1011F0000000000000003E40CDCCCCCCCCCC1CC0CC
:1012000000000000000049406666666666661EC013
:101210000000000000005440280300209403002038
:10122000BC02002050020020E801002090000020B5
:101230001800002070470068006C70472DE9F041ED
:1012400004460068A04F0168426840F4807307F5C7
:10125000C066BB420CBF07F50073334602EA0105C6
:10126000A907996801F01F080CD5E06DC0065EBFA4
:10127000E06D40F40060E0652046FFF753FC206815
:101280000221016015F00C0F4CD0E16DC9065EBF64
:10129000E16D41F40071E165C16811F4406F3BD12B
:1012A000B84206D089498842014614D107F54071F9
:1012B00001E04FF0A041814201460CD0B8F1090F86
:1012C00000F2F380012140F2212201FA08F11142DB
:1012D000014600F0EA80C96889041DD40168090745
:1012E0001AD5816849070FD4416821F00C0141608B
:1012F000E06D20F48070E065E06DC0040CD4E06D1A
:1013000040F00100E06507E0E06D40F01000E065AE
:10131000206E40F0010020662046FFF725FE206881
:101320000C21016015F0600F56D0E16DC9065EBF5B
:10133000E16D41F40051E165C16CB84201F4C07245
:10134000C16806D0614B9842034613D107F540733C
:1013500001E04FF0A043834203460BD0B8F1070FE2
:1013600000F29A80012303FA08F313F0C10F034639
:1013700000F09280DB6842B101F4406103F000723A
:10138000114403F40052891820D101689A021DD437
:1013900011F040011AD0816809070FD4416821F08B
:1013A00060014160E06D20F48050E065E06DC005B3
:1013B0000CD4E06D40F00100E06507E0E06D40F026
:1013C0001000E065206E40F0010020662046FFF727
:1013D000AAFB206860210160290609D5E06D40F470
:1013E0008030E065204600F075F9206880210160BA
:1013F000E9050AD5E06D40F40030E0652046FFF7CE
:1014000094FB20684FF480710160A9050AD5E06D56
:1014100040F48020E0652046FFF788FB20684FF409
:1014200000710160E9061FD5E16B79B1B8F1000FD9
:101430002ED007F50071B84208BF0E46B0F1A04F9C
:1014400008BF0E46B16811F4604F0BD0E06D40F458
:101450008060E065206E40F0020020662046FFF7C5
:10146000E9FE206810210160690558BFBDE8F081E0
:10147000E16D41F48041E165216E41F00801216692
:101480004FF4806101602046BDE8F041FFF74CBB9E
:10149000C168C907DAD1E5E7B8420FD00B4B9842D3
:1014A000034608BF07F5407364E7B84209D007490F
:1014B0008842014608BF07F540710CE74FF0A04392
:1014C00058E74FF0A04106E700010050000500502A
:1014D000BCB504460020002C019034D0E06D30B93A
:1014E000204600F0F9F8002084F8580020662168B2
:1014F0008868800003D588686F4A104088608868D3
:10150000C00013D46C4A886802F1805210406C4AC3
:1015100040F08050886069480068B0FBF2F001E05C
:1015200001980138019001980028F9D18868C0001D
:101530000BD4E06D40F01000E065206E40F001003B
:101540002066012002E00120B4E000208A68C2F396
:101550008002E36D03F01003D218E26D03D042F075
:1015600010010120A5E022F481720232E2658A684E
:10157000D20726D1544B41F48072524D9A4203D186
:101580002B68D5F8002106E0D5F80024D5F8003501
:101590001A43D5F800361A43D20712D105F1F802E2
:1015A00005F53E7391421A4618BF05F5DF62B1F1A9
:1015B000A04F08BF1A466368956825F47C152B4335
:1015C0009360627FE36B43EA4232D4E902352A43F7
:1015D0001A4394F8243042EA0342012B04D1A36A4F
:1015E0003A4D05EB43431A43E36A23B103F478739E
:1015F0001A43236B1A43CB68354D2B401A43CA60FC
:101600000A69636B22F040621A430A618A688B6838
:10161000DB0843EA9202D2073DD194F8383094F8BF
:101620001CC0CD6844F202025B0025EA020243EAD4
:101630008C331A43CA6022690B694AB143F4803380
:1016400043F6FF750B61D1F8C030AB431A4307E096
:1016500023F4803243F6FF730A61D1F8C0209A4325
:10166000C1F8C02094F840300A69012B10D140F233
:10167000FD7322EA030CD4E91135D4E9132E43EAB1
:101680000C032B431A4342EA0E0242F0010201E02E
:1016900022F001020A6163690A6B22F00F02012B3A
:1016A00002BF236A013B1A430A63E16D012262F320
:1016B0000101E16502B0B0BDC0FFFF5F0C0000207A
:1016C000400D030008000050000100500000FEFF24
:1016D0000740F0FF70470000F0B587B0044602A84D
:1016E0001421FEF7CDFD206800F130404FEA302094
:1016F000052800F2DC80DFE800F00326DADA5194F6
:101700006C4801684A1C002902606B4808D10168D6
:1017100041F400510160016801F400510191019907
:10172000016841F00101016002A9006800F00100B8
:101730000190019800200490032003900120029062
:101740004FF0904021E05B4801684A1C002902608C
:10175000594808D1016841F400510160016801F461
:10176000005101910199016841F00201016002A953
:10177000006800F00200019001980020049003200E
:1017800003904FF4004002904C4800F0F9FD122005
:101790000521002201F04AFB122086E045484168FD
:1017A0004A1C00294260444808D1016841F4804144
:1017B0000160016801F480410191019901680026EE
:1017C00041F00201016002A9006800F002000190EE
:1017D000019804960320039002200290374800F0FD
:1017E000CFFD394D374F4FF400604FF40071802228
:1017F00025232E62C5E90073C5E90266C5E9042107
:10180000C5E90606284600F0CBFB08B1FFF742F910
:101810002F20012100226565AC6201F007FB2F201B
:1018200043E0244841684A1C00294260224808D10C
:10183000016841F480410160016801F48041019137
:1018400001990168002641F00201016002A90068C7
:1018500000F00200019001980496032003904FF4D9
:1018600080500290154800F08BFD164F144D4FF438
:1018700000604FF400718022262314372E62C5E9E0
:101880000073C5E90266C5E90421C5E906062846D4
:1018900000F086FB08B1FFF7FDF83D200121002292
:1018A0006565AC6201F0C2FA3D2001F0B1FA07B003
:1018B000F0BD00BF100000204C10024000040048A2
:1018C000600400203000024000040020F8B5044607
:1018D00000685D4E5B4D40F48071B1420CBF2946FB
:1018E00005F580618F688068400703D494F858003C
:1018F000012802D1022001B0F0BD012084F8580077
:101900002046FEF7C5FF18B1002184F85810F2E711
:101910002068E26D40F6017307F01F019A43B04260
:1019200002F58072E26505D0484A904207D105F57C
:10193000807201E04FF0A04209B1824203D1E26D12
:1019400022F48012E265E26D0023D20444BF236ECC
:1019500023F0060323661C230022036084F858202A
:10196000426822F01C024260A76943683A46082F89
:1019700018BF04221A434260E26B1AB9426842F06F
:1019800010024260B04205D0304A90420FD105F5B6
:10199000807301E04FF0A043834208D0092927D883
:1019A000012202FA01F140F22122114220D0C16845
:1019B000890116D5E16D0122082F62F30D31E16531
:1019C0006FF0400108BF6FF020014268082F01EA64
:1019D000020141604FF0200108BF402142681143DD
:1019E000416081681A4A114004318160002082E719
:1019F000E16DB04241F48011E16506D0134988429F
:101A0000014608BF05F5807101E04FF0A041C968AB
:101A10008901EBD5E16D0122082F62F30D31E165FB
:101A2000416806D121F020014160416841F0400148
:101A300005E021F040014160416841F02001416032
:101A4000D4E700BF00030050000100500005005023
:101A5000C0FFFF7F10B5044690F85800012804BF6E
:101A6000022010BD0120032184F858002046FEF713
:101A70007DFE78B92068416821F01C014160204654
:101A8000FEF7D4FE30B9E06D41F201118843013018
:101A9000E0650020002184F8581010BD006800683F
:101AA000C0F380707047000070B50268DA491B4EC1
:101AB00011444FEAB104042C0BD84FF000514FF4FD
:101AC0000013DFE804F02003120D10004FF4800330
:101AD00019E0A6F5007302219A4208BF012104E033
:101AE0004FF0804101E04FF000418A4B9A4202D012
:101AF000894B9A4206D1326A0A408A4218BF70BDA9
:101B0000316205E00B4631681940994204D13360D7
:101B1000BDE8704000F0B0B970BD00BF14040140D2
:101B20002DE9FC4180460020B8F1000F019042D021
:101B3000D8F80000016800293DDB98F81D1049B96C
:101B40000020C8F8200088F81C00404600F0E6F8A5
:101B5000D8F8000008F10406D0F800C0634A4ACE65
:101B6000D8E90454076819433A40214331432943D3
:101B700011435FEA0C220160016811D411F40001E5
:101B80000ED05B495B4A0968B1FBF2F101EB8101C0
:101B9000890001E001990139019101990029F9D1E8
:101BA000554901444FEAB1025449052A05D254A3CC
:101BB00053F8222007E0012094E0A1F5F6730222F9
:101BC000984208BF0122D8F818305FEA837C0AD017
:101BD000504CDF0619D4A04202D04F4CA0421DD178
:101BE0008F6A974318E04C4B01F12405984203D0CB
:101BF000484CA04218BF0D1D2F68464C9743A04289
:101C00002F6056D0984254D05FE0A04202D0424CA0
:101C1000A04206D18F6A17438F6205E08F68974311
:101C200001E08F6817438F603A4C9F0607D4A042AB
:101C300002D0394CA0420BD1CF6A974306E0A042B4
:101C400002D0354CA04206D1CF6A1743CF6205E0DF
:101C5000CF68974301E0CF681743CF602E4E01F164
:101C60003405B04204D02B4CA04218BF01F114053A
:101C7000284CBCF1000F2A6006D4A04201D0B0422B
:101C80000AD14F6A974305E0A04201D0B04206D185
:101C90004F6A17434F6205E04F68974301E04F6872
:101CA00017434F60DB0707D11A4B984201D0B0426F
:101CB0000BD1086A904306E0164B984201D0B0421F
:101CC00006D1086A1043086205E00868904301E005
:101CD00008681043086098F81D0010B9012088F8C2
:101CE0001D00002002B0BDE8F08100BF0F7E00FFA4
:101CF0000C000020400D030000FEFEBF0004014068
:101D00000000200000004000000000200000004013
:101D100000000080180201401402014010B586B096
:101D2000044601A81421FEF7ABFA20683A4908449A
:101D30004FEAB00006286CD8DFE800F004146B28E6
:101D40006B4556003548016841F0010101600068AB
:101D500000F0010000900098002003900320029002
:101D600002200EE02D48016841F001010160006889
:101D700000F00100009000980020039003200290E2
:101D80000820019001A94FF0904040E023480168ED
:101D900041F00201016001A9006800F0020000901A
:101DA00000980020039003200290012001901C481D
:101DB00000F0E6FA41200021002201F037F841202E
:101DC00001F026F825E01548016841F002010160A4
:101DD000006800F0020000900098002003900320AB
:101DE00002904FF400600FE00C48016841F00201DE
:101DF0000160006800F0020000900098002003904D
:101E0000032002904FF480400190054801A900F0A2
:101E1000B7FA06B010BD00BF00FEFEBF4C10024076
:101E20000004004881B00021002800911CD0016806
:101E30000A68002A18DB427F012A15D10A6842F09D
:101E400001020A600221417709480A490068B0FB93
:101E5000F1F000EB800001E000980138009000985C
:101E60000028F9D1002000E0012001B0704700BF38
:101E70000C00002080841E00704790F82510022975
:101E80002ED101680A6822F00E020A600A6822F068
:101E900001020A60816C0A6822F480720A60D0E94B
:101EA000101202F01F03012202FA03F34B60D0E983
:101EB00013134B60416D31B10B6823F480730B60D9
:101EC000D0E916134B60002180F8241080F82520FB
:101ED000826B6AB180B590470021BDE8804007E081
:101EE0000421C163002180F82410012180F825100D
:101EF0000846704790F825007047B0B5D0E910C487
:101F0000DCF80010026804F01F0E13685C0710D59F
:101F1000042404FA0EF414EA01050AD011688906B3
:101F20005EBF116821F004011160CCF80440016B20
:101F300030E09C0716D5022404FA0EF414EA0105D9
:101F400010D01168890606D4116821F00A011160C9
:101F5000012180F825100021CCF8044080F82410DD
:101F6000C16A17E01B0719D5082303FA0EF31940BD
:101F700008BFB0BD116821F00E011160012101FA06
:101F80000EF2CCF804200022C16380F8242080F8EF
:101F90002510416B11B1BDE8B0400847B0BD00004D
:101FA00000284AD0F8B5044602202B49142384F8AF
:101FB000250004F11807206801F108029042274A21
:101FC00038BFA1F5806138BF02F580620244B2FBE0
:101FD000F3F29200C4E9101247F6F072016821EAA8
:101FE000020CD4E90223D4E9041EE0CF42EA0C0239
:101FF0001A43114341EA0E01294331433943016039
:102000002046FEF7D9FCA068B0F5804F06BF00203F
:1020100060606068C2B2A16C013803280A60D4E92C
:1020200013124A600BD82046FEF7EAFC606D0021CF
:102030000160D4E91601416005E0012070470020ED
:10204000C4E91500E06500200121E06384F8240064
:1020500084F82510F8BD00BF00040240F8FBFDBF66
:1020600010B5044690F82400012820D0012084F8FF
:10207000240094F82500012816D1022084F82500B8
:102080000020E063D4F800C0DCF8000020F001007C
:10209000CCF800002046FEF7C5FC2068226B0168E2
:1020A0003AB141F00E010AE0002084F82400022039
:1020B00010BD21F004010160016841F00A010160D6
:1020C000A16C0A68D20342BF0A6842F480720A60B7
:1020D000616D19B10A6842F480720A60016841F0CA
:1020E00001010160002010BDB0B5044600F01CFAEB
:1020F00005460548611C406818BF044400F014FA06
:10210000401BA042FAD3B0BD040000202DE9F84FD7
:10211000F74A06274FF000094FF0000B00259042C8
:1021200000F1384208BF05274FEAB223052B38BF1C
:102130004FEAB227009731FA05F208BFBDE8F88FE1
:10214000012202FA05FA1AEA010446D0E94BAA086C
:1021500009F00C08A3F57E770F2357F822E0009EC4
:1021600003FA08FC0EEA0C0306FA08F6B34215D18E
:10217000E04B1E461B68A34333607368A343736040
:10218000B368A343B360DC4B1E461B68A3433360B4
:1021900057F8223023EA0C0347F822300322036861
:1021A0000F2702FA0BF21343036009F01C0307FA2E
:1021B00003F36FF0030707EA550707443E6A26EA70
:1021C00003033B62C3689343C360436823EA0A0383
:1021D0004360836823EA0202826009F104090BF17B
:1021E000020B0135A7E700BFB0B5042817D01028AF
:1021F00021D0802835D0402860D1594C402120463C
:1022000000F080F900285AD02046402100F07AF9E9
:10221000012853D15448BDE8B04001F029BB05F076
:1022200032FE4FF09040042100F06CF901283AD1C1
:102230004948012141E0494D287801283ED14848CC
:10224000102100F58064204600F05CF901283BD1A4
:102250004448002180F83A10C0F83610816A0163C2
:102260003AE03F4C8021204600F04CF950B93E4DF9
:10227000284601F0FDFA284601F096FB36484FF457
:10228000807101822046802100F03CF9012815D19F
:10229000354C204601F0ECFA204601F085FB2E4833
:1022A00001210182B0BD4FF09040042100F02AF9D5
:1022B000002818BFB0BD284800210170B0BD2A48D1
:1022C000BDE8B04001F070BB2046102100F01AF9C3
:1022D00010B92448816AC1622248D0E90B12511A10
:1022E00081868AB21C49CB7F012B1DD1A2F19700B8
:1022F00040F28921884205D9A2F6B93041F657311A
:102300008842DBD84FF090404FF4006100F0FAF8BB
:1023100001284FF090404FF400610CBF00220122D1
:10232000BDE8B04000F0FAB8653A9208AE2AC5D8C8
:10233000CB7C002285F83020022B9EBF01228A74BC
:102340005A1CCA74002180F8671080F84710BDE855
:10235000B04005F098BD00BF18000020E801002043
:102360000004004890000020CC05002003490A68C2
:10237000024214BF08607047FFF736BF14040140E3
:102380002DE9F84F5A4A4FF006094FF0000B4FF075
:10239000010A4FF0000C904200F1384208BF4FF0A4
:1023A00005094FEAB223052B38BF4FEAB2290022B4
:1023B0000D6835FA02F408BFBDE8F88F0AFA02F496
:1023C00015EA040800F086804D68122D00F288801E
:1023D0000AFA05F717F0061F00F082800323D0F8F1
:1023E00008E0CE6803FA0CF72EEA070306FA0CF6AB
:1023F0006FEA070E570033438360C5F30013466846
:102400009340A64333434360C3688E6803EA0E03D8
:10241000BE403343C36045F01003122B11D10BF0C3
:102420001C030F2404FA03F66FF0030404EA5205B8
:1024300005442C6AB4430E6906FA03F323432B6266
:102440004D68046805F00303BB4004EA0E073B43F4
:102450000360EB003ED5294B264C294D0BF00C06B2
:102460001F461B68AE4643F001033B603B6803F028
:102470000103009322F00303009F23445F590F25BB
:10248000B54009FA06F6AF43374343F80E702368A8
:102490004E6843EA0807F50358BF23EA0807276098
:1024A000B503636843EA080758BF23EA0807676073
:1024B000F502A36843EA080758BF23EA08070E4B52
:1024C000A760B6021D461B6843EA080758BF23EA07
:1024D00008072F600BF1040B0CF1020C013267E7C7
:1024E0000323674603FA0CF46FEA040E8CE700BF7F
:1024F00000140048000401400C0401406010024038
:1025000008FCFFFF0069084018BF012070474269BE
:1025100028230A4208BF1823C15070471823002AF5
:1025200008BF2823C150704701480068704700BFAA
:102530005807002090F84120202A03D190F840202D
:10254000012A01D1022118E0242280F841200268EA
:10255000136823F001031360136823F4805313609E
:10256000136819431160116841F0010111600021E5
:10257000202280F8401080F841200846704790F8EB
:102580004120202A03D190F84020012A01D10221C4
:1025900017E0242280F841200268136823F0010329
:1025A0001360136823F4706343EA0121116011681A
:1025B00041F0010111600021202280F8401080F8D4
:1025C0004120084670477047704701688B690A6868
:1025D00002F0800CDA0509D5BCF1000F06D0426C80
:1025E00042F0010242644FF48072CA615A0509D573
:1025F000BCF1000F06D0426C42F0080242644FF476
:102600008062CA619A0509D5BCF1000F06D0426C00
:1026100042F0020242644FF40072CA61416C11F050
:102620000B0F18BF02F08CB97047026891691268ED
:10263000436B03B1184770477047000010B310B5E3
:10264000044690F8410028B9002084F84000204654
:1026500000F0F4FA242084F841002068016821F099
:1026600001010160616821F070610161816821F4FC
:1026700000418160D4E90212012A05D141F40041F0
:10268000816009E00120704741F40441022A816021
:1026900004BF4FF40061416041680F4A04F1100328
:1026A00011434160C16821F40041C1600ECB114368
:1026B00041EA0321C160D4E90712114301600168B6
:1026C00041F00101016000202021606484F8411084
:1026D000206384F8420010BD0080000270477047FC
:1026E00070477047704700002DE9FE4F044690F890
:1026F000410020280DD1DDF830B0BBF1000F0AD029
:10270000DDF83480B8F1000F05D094F840000128BE
:1027100006D1022516E04FF400706064012511E037
:1027200001251F4616468A4684F84050FFF7FCFEF6
:102730008146009020464FF400410122192302F007
:1027400093FD18B1284603B0BDE8F08F22200E9902
:10275000002532463B4684F84100402084F8420080
:102760006564C4F824B06563A4F82A808846CDE97E
:1027700000192046514602F0BDFB10B184F84050CC
:10278000CCE7618D8048B1F5807F06D3FF21FF2221
:102790004FF080732185009005E0618D4FF000734C
:1027A00021850090CAB22046514602F025FD00273F
:1027B000FF262046042100224346CDF8009002F077
:1027C00053FD0028AAD12068406A616A0870608DB4
:1027D00001386085606A01306062208D411E21856C
:1027E0000904608D20D1F8B12046802100224346A3
:1027F000CDF8009002F038FD00288FD1608DB0F543
:10280000807F07D32685009720465146FF224FF050
:10281000807307E0608D51464FF000732085C2B28F
:102820002046009702F0E8FC608D0028C1D12046C8
:1028300041464A4602F048FD00287FF46FAF206809
:102840002021AF4B0025C16142681A40426084F8E4
:10285000411084F8405084F8425073E72DE9FE435C
:10286000044690F84100202811D1DDF82880B8F105
:10287000000F0ED0DDF82C90B9F1000F09D02068C0
:102880008069000403D494F84000012809D102278C
:1028900003E04FF4007060640127384603B0BDE8E0
:1028A000F08301201F4616460D4684F84000FFF7CE
:1028B0003BFE222132463B4684F84110402184F8F9
:1028C000421000216164D949A4F82A90E162D849F4
:1028D000C4F824806163618DFF2999BF618D4FF039
:1028E00000794FF08079FF2121851921CDE9001071
:1028F0002046294602F0FEFA18B1002084F8400074
:10290000CAE7E06BC0B1CB491E4A0027C0E90B27DC
:10291000C0E90D1742462168238D2431FFF7A0FB43
:10292000B0B1202084F8410084F8427084F84070EF
:10293000606C40F01000AEE7202084F841000020D9
:1029400084F8420084F84000606C40F08000A2E708
:102950000D4894F8282029464B460090204602F066
:102960004BFC84F84070208D618D081A1021608521
:10297000204601F053FF2068016841F400410160E6
:102980008BE700BF15470008002400802DE9FE4FAB
:10299000044690F8410020280DD1DDF830B0BBF19D
:1029A000000F0AD0DDF83480B8F1000F05D094F89C
:1029B0004000012806D1022516E04FF40070606443
:1029C000012511E001251F4616468A4684F840502D
:1029D000FFF7AAFD8146009020464FF400410122F6
:1029E000192302F041FC18B1284603B0BDE8F08F6E
:1029F00021200E99002532463B4684F841004020B4
:102A000084F842006564C4F824B06563A4F82A80A1
:102A10008846CDE900192046514602F09FFA10B1D0
:102A200084F84050CCE7608DB0F5807F09D3FF205B
:102A30005146FF224FF080732085002000902046F1
:102A400008E0608D00214FF0007320850091C2B234
:102A50002046514602F0D0FB0027FF262046414683
:102A60004A4602F055FC0028AAD1616A206811F894
:102A7000012B8262608D013860856162208D411E6C
:102A800021850904608D20D1F8B1204680210022E3
:102A90004346CDF8009002F0E7FB002890D1608D0E
:102AA000B0F5807F07D32685009720465146FF2248
:102AB0004FF0807307E0608D51464FF00073208522
:102AC000C2B22046009702F097FB608D0028C5D166
:102AD000204641464A4602F0F7FB00287FF470AFDB
:102AE00020682021064B0025C16142681A404260DF
:102AF00084F8411084F8405084F8425074E700BFD5
:102B000000E800FE2DE9FE43044690F8410020282D
:102B100011D1DDF82880B8F1000F0ED0DDF82C902F
:102B2000B9F1000F09D020688069000403D494F83B
:102B30004000012809D1022703E04FF400706064CF
:102B40000127384603B0BDE8F08301201F46164632
:102B50000D4684F84000FFF7E7FC212132463B4652
:102B600084F84110402184F84210002161642F490B
:102B7000A4F82A90E1622E49C4F824806163618D33
:102B8000FF2999BF618D4FF000794FF08079FF21C7
:102B900021851921CDE900102046294602F0DEF9F1
:102BA00018B1002084F84000CAE7A06BC8B12149E1
:102BB000214A0027C0E90B27C0E90D172168238DA2
:102BC00001F128024146FFF74BFAB0B1202084F80A
:102BD000410084F8427084F84070606C40F010004E
:102BE000ADE7202084F84100002084F8420084F8FA
:102BF0004000606C40F08000A1E794F82820204657
:102C000029464B46009702F0F7FA84F84070208D71
:102C1000618D081A10216085204601F0FFFD2068B3
:102C2000016841F4804101608BE700BF0000FFFFB5
:102C3000DD4D000803470008694700082DE9F0430F
:102C400087B0044602A81421FDF71AFB2068344916
:102C5000884261D1334D122602A9286840F0010054
:102C60002860286800F00100019001980420069077
:102C700002200590012004904FF4407003960290CA
:102C80004FF09040FFF77CFBE86800274FF080088A
:102C900040F48000E860E868234D00F48000019073
:102CA00001984FF400502862204885E8C100814611
:102CB0002846C5E90378C5E90577EF61FFF770F9A4
:102CC00008B1FDF7E7FE1A4E132109F11402E5637E
:102CD000AC621020C6E9002106F1080181E88101FB
:102CE0003046C6E90577C6E90777FFF759F908B115
:102CF000FDF7D0FE212004210022A663B46200F07B
:102D000095F8212000F084F822200421002200F010
:102D10008DF8222000F07CF807B0BDE8F08300BFFA
:102D2000005800404C100240C0040020080002403F
:102D300020050020704770471B48034940680A6817
:102D400010440860704700BF5807002080B503207A
:102D500000F08AF8002000F007F808B1012080BDDB
:102D600000F024F8002080BD70B50F4E0446706856
:102D7000B0B14FF47A71B1FBF0F06C490968B1FB66
:102D8000F0F000F061FF01250F2C0AD848B94FF090
:102D9000FF3021460022002500F048F8346000E0B2
:102DA0000125284670BD00BF0400002082B00D48F8
:102DB000816841F001018160816801F001010191A8
:102DC0000199016841F080510160006800F0805075
:102DD000009000980448016841F48041016002B00D
:102DE000704700BF581002400870004000280CDBFC
:102DF00000F01F010122400902FA01F1034A42F8E2
:102E00002010BFF34F8FBFF36F8F704780E100E05A
:102E1000002808DB00F01F010122400902FA01F13D
:102E2000014A42F82010704700E100E080B5144BE1
:102E30001B68C3F3022CBCF1030E8CF007034FF0A8
:102E4000FF3C38BF4FF0000E042B28BF04230CFAC0
:102E500003F399430CFA0EF301FA0EF19A4311436E
:102E6000BDE8804003F074BF05494FF6FF030A68D0
:102E70001A4060F30A22034810430860704700BFFD
:102E80000CED00E00000FA0520B3CF49B0F5007F5B
:102E90000A6845D1D1F8800040F48070C1F8800004
:102EA00002F4C060B0F5806F3ED10868012262F381
:102EB0004A20322208601D48006850431C4AB0FB7B
:102EC000F2F0C0434A6918B1013012F48062F9D1BE
:102ED000486920E0BC480168D0F8802001F4C06156
:102EE00022F48072B1F5806FC0F880201CD1016897
:102EF000012262F34A21322201600C4909685143E0
:102F00000B4AB1FBF2F1C943426919B1013112F424
:102F10008062F9D14069400544BF0320704703E057
:102F2000022060F34A220A60002070470C00002053
:102F300040420F002DE9FC4104468078A14E000775
:102F400001D400205DE0F06CC0000BD4F06C4FF0B9
:102F5000010840F08050F064F06C00F08050019067
:102F6000019801E04FF00008974F386840F48070F6
:102F70003860FFF7D9FA05463868C00506D4FFF770
:102F8000D3FA401B0228F7D9032033E0D6F8840097
:102F900010F4407025D0216D884211D0D6F88400FD
:102FA000D6F8841041F4803120F44070C6F88410C3
:102FB000D6F8841021F48031C6F88410C6F8840055
:102FC000C0070ED0FFF7B0FA054641F28837D6F8B1
:102FD0008400800705D4FFF7A7FA401BB842F6D952
:102FE000D2E7D6F88400216D20F440700843C6F87B
:102FF00084000020B8F1000F1EBFF16C21F0805159
:10300000F1642168CA0705D0F26F636822F00302F9
:103010001A43F2678A0705D5F26FA36822F00C0203
:103020001A43F2674A0705D5F26FE36822F03002CF
:103030001A43F2670A0705D5F26F236922F0C0022E
:103040001A43F267CA0605D5F26F636922F440722B
:103050001A43F2678A0605D5F26FA36922F440622B
:103060001A43F2674A0605D5F26FE36922F440522B
:103070001A43F2670A0605D5F26F236A22F440422A
:103080001A43F267CA0505D5F26F636A22F440322B
:103090001A43F2678A0307D5D6F89020A36A22F074
:1030A00003021A43C6F890208A0505D5F26FE36A39
:1030B00022F440221A43F2674A050DD5F26F236BC2
:1030C00022F44012B3F5801F42EA0302F26702BF06
:1030D000326842F4801232600A050DD5F26F636BDC
:1030E00022F44002B3F5800F42EA0302F26702BF06
:1030F000326842F480123260CA040DD5F26FA36BBD
:1031000022F04072B3F1807F42EA0302F26702BF0D
:10311000326842F4801232608A040DD5F26FE36B9C
:1031200022F04062B3F1006F42EA0302F26702BF8D
:10313000326842F4801232604A040DD5F26F236C7B
:1031400022F04062B3F1006F42EA0302F26702BF6D
:10315000326842F4801232600A040DD5F26F636C5B
:1031600022F04052B3F1805F42EA0302F26702BFED
:10317000326842F480323260CA030DD5F26FA36C1C
:1031800022F04042B3F1804F42EA0302F26702BFED
:10319000326842F48032326049030FD5D6F890107D
:1031A000E26C21F44011B2F5001F41EA0201C6F8B9
:1031B000901002BF316841F48011316002B0BDE867
:1031C000F08100BF0C100240007000402DE9F04774
:1031D00000284BD06E4B04460D46186800F00F00D7
:1031E000884209D2186820F00F0028431860186838
:1031F00000F00F00A84239D120688C4E9A46C107D2
:10320000B14602D14FF0000862E06168032927D17E
:1032100056F8081C890129D57168022771687268FF
:103220007368C3F34163C1F30311C2F3062207EBD2
:10323000430337467E4E0131B6FBF1F15143554A07
:10324000B1FBF3F1914223D939683E4611F0F00FFA
:1032500016D0800701D5A06890B14FF000081AE0A1
:1032600056F8080C022904D1800304D40120BDE8DB
:10327000F0874005FAD500F0AFF846498842ECD90E
:10328000306808214FF0800861F30710306002E0D9
:103290004FF000083E463068616820F003000843A4
:1032A0003060FFF741F9064641F288374846D9F8C1
:1032B0000000616800F00C00B0EB810F05D0FFF753
:1032C00033F9801BB842F1D939E020684E465346A5
:1032D000810706D4B8F1800F16D1316821F0F001D2
:1032E00011E0410742BF316841F4E06131600107FC
:1032F00004D53168072262F30D2131603168A2687C
:1033000021F0F00111433160196801F00F01A94269
:103310001AD9186820F00F0028431860FFF704F945
:10332000064641F288375046DAF8000000F00F00F8
:10333000A84207D0FFF7F8F8801BB842F3D9032062
:10334000BDE8F08720684E46410705D53168E26840
:1033500021F4E06111433160000706D5306821692E
:1033600020F4605040EAC100306000F035F8316868
:10337000094AC1F30311515C01F01F01C84014490F
:10338000086006480068BDE8F047FFF7EDBC00BFE5
:103390000020024000B4C404DC80000804000020C7
:1033A0000B4822490B4A00680968C1F30221515CAD
:1033B00001F01F01C840704705481C49054A0068D4
:1033C0000968C1F3C221515C01F01F01C840704778
:1033D0000C000020EC8000081449086800F00C0282
:1033E0001348042A08BF70470A6802F00C02082A32
:1033F0001AD00A6802F00C020C2A1CBF0020704789
:103400004A6802234A68D1F804C04968C1F341619F
:10341000C2F30312013203EB4101B0FBF2F0CCF333
:1034200006225043B0FBF1F0704700BF0810024085
:103430000024F4002DE9FC41002800F0AA81044694
:103440000078DF4EC0071ED12078800747D420784F
:10345000000740F19A806169D6F89400002900F0D5
:10346000838040F00100C6F89400FFF75DF8054640
:10347000D6F89400800700F18880FFF755F8401BCC
:103480000228F5D9C9E0B168F06801F00C010829FB
:103490004BD0032281F00C0122EA00000844B0FA6C
:1034A00080F0400941D16768B7F5803F07D03068A8
:1034B000B7F5A02F40F0CC8040F480203060306819
:1034C00040F480303060FFF72FF805463068800305
:1034D000BAD4FFF729F8401B6428F7D99DE0B068FB
:1034E000F16800F00C00042828D001F0030180F0FE
:1034F0000C0081F002010844B0FA80F040091DD1AF
:10350000E1683068002900F08A8040F48070306003
:10351000FFF70AF805463068400500F19180FFF793
:1035200003F8401B0228F6D977E0306880037FF566
:103530008BAF606800287FF487AF2AE130684005D0
:1035400003D5E068002800F024817068216920F02C
:10355000FE4040EA01607060C0480068FFF704FC6C
:10356000002840F0168172E720F00100C6F89400B0
:10357000FEF7DAFF0546D6F89400800705D5FEF77A
:10358000D3FF401B0228F6D947E02078400740F1DE
:103590009A80B06DC0000BD4B06D4FF0010840F0C0
:1035A0008050B065B06D00F080500190019801E04E
:1035B0004FF00008AA4F3868C0050FD4386840F4AF
:1035C00080703860FEF7B0FF05463868C00505D446
:1035D000FEF7AAFF401B0228F7D91EE0A768012FBB
:1035E00007D0D6F89000052F4AD140F00400C6F865
:1035F0009000D6F8900040F00100C6F89000FEF769
:1036000093FF054641F28837D6F89000800753D4DF
:10361000FEF78AFF401BB842F6D90320BAE020F437
:1036200080703060FEF780FF0546306840057FF50A
:103630000EAFFEF779FF411B03200229F5D9A9E05F
:103640007068216920F0FE4040EA01607060FEE68B
:1036500020F480303060306820F480203060FEF745
:1036600063FF0546002F7FF431AF306880037FF59C
:10367000EBAEFEF759FF411B03206429F5D989E021
:1036800020F00100C6F89000D6F8900020F0040069
:10369000C6F89000FEF748FF0546002FB2D141F270
:1036A0008837D6F89000800706D5FEF73DFF411B0E
:1036B0000320B942F5D96DE0B8F1000F1EBFB06D1F
:1036C00020F08050B0652078800627D5A169D6F813
:1036D000980089B140F00100C6F89800FEF724FF79
:1036E0000546D6F89800800718D4FEF71DFF411B49
:1036F00003200229F5D94DE020F00100C6F898001A
:10370000FEF712FF0546D6F89800800706D5FEF7AB
:103710000BFF411B03200229F5D93BE0E06900289B
:1037200000F09A80B16801F00C010C2935D1012814
:103730002FD0F068216A00F003028A4229D1616A21
:103740006FF00F0202EB011100F0F0028A4220D16B
:10375000A16A00F4FE42B2EB012F1AD1E16A00F037
:103760007842B2EBC16F14D1216B404A02EA015199
:1037700000F4C002A1F500118A420AD1616B4FF03A
:103780007E4200F0C06002EA016101F17E418842A0
:1037900062D0012002B0BDE8F0813168022821F03A
:1037A000807131600ED1FEF7BFFE054630688001A2
:1037B0001DD5FEF7B9FE411B03200229F6D9E9E722
:1037C00000100240F068274920F00300F060F06824
:1037D0000840F060FEF7A8FE0446306880013BD543
:1037E000FEF7A2FE011B03200229F6D9D2E704F15D
:1037F0002007F0686FF00F058ECF05EB02121A4D0F
:1038000028400843216B1043184A40EA032002EA8B
:1038100001514FF07E42A1F500110843616B40EA6F
:10382000C76002EA016101F17E410843F06030683F
:1038300040F080703060F06840F08070F060FEF71B
:1038400073FE04463068800106D4FEF76DFE011B4E
:1038500003200229F6D99DE700209BE70400002001
:1038600000700040FFFFEEFE0C809F010000E0FFB3
:1038700098B110B50446022084F85D002068016804
:1038800021F040010160204600F0E4F800202066AD
:1038900084F85C0084F85D0010BD0120704770471B
:1038A0001CB504460068416882684B0605D502F0E5
:1038B0004103012B01D1E16C05E00B0607D512F0A5
:1038C000020304D0216D2046BDE81C4008478B064A
:1038D00061D512F4B0735ED012F0400316D094F8A4
:1038E0005D30032B07D100210191C16801918068EF
:1038F000019001984FE0236E43F0040323660023F8
:103900000193C368019383680193019B02F4807360
:1039100012F020020CD0226E42F001022266002238
:10392000019282680192026822F040020260019ACC
:1039300043B1226E42F008022266002201928268A0
:103940000192019A226E32B34268890722F0E002A6
:1039500042604FF0010284F85D201DD0416821F0E3
:1039600003014160A06D40B10E498163FEF785FA05
:1039700018B1206E40F040002066606D58B10949D2
:103980008163FEF77AFA002808BF1CBD206E40F064
:10399000400020661CBD1CBD2046BDE81C40FFF752
:1039A0007EBF00BF5D560008F0B1B0B504460020F0
:1039B000A06294F85D1021B984F85C00204600F004
:1039C00063F8022084F85D002068016821F040015E
:1039D0000160D4F80CE0BEF5E06F07D94FF0000CA1
:1039E000BEF5706F05D106E0012070474FF4805C92
:1039F00001D00023A362236B2BB90123BEF5E06F36
:103A000088BF02232363D4E90132D4E904151A43A1
:103A10001143A269294302F400731943E36919436E
:103A2000236A1943A36A19430423016003EA12427B
:103A30004CEA0E011143626A636B11431943416002
:103A4000C16921F40061C16100200121206684F870
:103A50005D10B0BD00683249884218BF704780B51C
:103A6000E648016821F4004101604FF090404FF4B6
:103A70000041FEF74BFB2C483821FEF747FB332073
:103A8000BDE88040FFF7B2B9F0B587B0044602A8A0
:103A90001421FCF7F5FB2068214988423DD12148DB
:103AA00006250026022702ACC16841F40041C1602E
:103AB000C16801F4004101910199016841F00101DF
:103AC0000160016801F0010101910199016841F073
:103AD000020101602146006800F002000190019897
:103AE0000695CDE9046603974FF4004002904FF02D
:103AF0009040FEF745FC3820CDE90565CDE9037619
:103B0000214602900848FEF73BFC332002210022A8
:103B1000FFF78CF93320FFF77BF907B0F0BD00BF4A
:103B2000003C00404C100240000400487047000078
:103B300090F85CC0BCF1010F02D14FF0020C69E0BB
:103B400080B54FF0010C80F85CC090F85DE0BEF1EC
:103B5000010F29D14FF0010C002956D0002A54D072
:103B6000002B52D090F85DC0BCF1040F1CBF4FF089
:103B7000050C80F85DC04FF0000CC0F860C0C38732
:103B800083878163A0F844300264A0F84630C1689E
:103B9000B1F5E06F1BD92249224AC0E9132101681F
:103BA0000A4652F804CF1CE0D0F804C0BCF5827F6E
:103BB0000AD14FF0020CBEF1040F26D1D0F808E074
:103BC000BEF1000FC6D020E04FF0020C1DE01249FC
:103BD000124A022BC0E9132101680A4652F804CFA9
:103BE00003D32CF480534B6002E04CF480531360F9
:103BF00013684FF0000C43F0E00313600A685206AC
:103C00005EBF0A6842F040020A60002180F85C1042
:103C1000BDE8804060467047B95500082F55000840
:103C20008F550008015500080648C1890131C1813E
:103C3000417C012918BF7047007C08B904F05AB9CB
:103C4000704700BF18000020411E0020B0EB116F2C
:103C50001CBF01207047044AF023516003490B70D8
:103C6000072190601160704710E000E023ED00E054
:103C700070477047704770477047704790F83C3006
:103C80000222012B40D070B580F83D2001221F4D4B
:103C900080F83C20026854689368AA4205D01C4E04
:103CA000B24202D01B4EB24203D14E6824F47004DB
:103CB0003443194EB2F1804F06EA04060C6846EA16
:103CC0000406566013D0154CA24210D0144CA242E8
:103CD0000DD0144CA2420AD0AA4208D00D4CA242E8
:103CE00005D00B4CA24202D00F4CA24204D18968ED
:103CF00023F08003194391600022012180F83C20C9
:103D000080F83D10BDE8704010467047002C01401F
:103D100000500140003401408FFFFFFD00040040CF
:103D200000080040000C004000400140704760B3B4
:103D300010B5044690F83D0028B9002084F83C00F6
:103D4000204600F025F80220211D84F83D0020685F
:103D500002F08CFA012084F8480084F83E0084F8D0
:103D60003F0084F8400084F8410084F8420084F861
:103D7000430084F8440084F8450084F8460084F841
:103D8000470084F83D00002010BD0120704700006E
:103D9000E0B500681749884217D01749884218BF14
:103DA0008CBD16480022016841F01001016003211A
:103DB000006800F01000019001983620FFF736F8F7
:103DC0003620BDE88C40FFF723B80C48002201687C
:103DD00041F0200101600021006800F02000009007
:103DE00000983720FFF722F83720BDE88C40FFF716
:103DF0000FB800BF001400400010004058100240EF
:103E0000704710B5044600680169890744BFC1685E
:103E10005FEA81715BD40169490744BFC1685FEA09
:103E2000417160D40169090744BFC1685FEA01714B
:103E300066D40169C90644BFC1685FEAC1616BD439
:103E40000169C9071CBFC1685FEAC17171D101690D
:103E5000090644BFC1685FEA016172D40169C905FE
:103E600044BFC1685FEA016173D40169490644BF78
:103E7000C1685FEA416174D40169890644BFC168C1
:103E80005FEA816175D40169C90244BFC1685FEA14
:103E9000C12176D40169890244BFC1685FEA8121EA
:103EA00077D40169490244BFC1685FEA412178D4EF
:103EB0000169090246BFC1685FEA012110BD6FF4C4
:103EC000000101612046BDE81040FFF72FBF6FF0F1
:103ED00002010161012121778069800769D02046B4
:103EE000FFF78EFF6BE06FF0040101610221217783
:103EF000806910F4407F66D02046FFF781FF68E0BC
:103F00006FF00801016104212177C069800764D046
:103F10002046FFF775FF66E06FF010010161082190
:103F20002177C06910F4407F61D02046FFF768FF19
:103F300063E06FF001010161204600F064F8206841
:103F400085E76FF0800101612046FFF792FE20684F
:103F500084E76FF4807101612046FFF789FE2068D5
:103F600083E76FF040010161204600F04DF82068C2
:103F700082E76FF0200101612046FFF77BFE206899
:103F800081E76FF4801101612046FFF775FE20681C
:103F900080E76FF4001101612046FFF76CFE206896
:103FA0007FE76FF4800101612046FFF766FE20681D
:103FB0007EE7204600F025F8204600F023F8002098
:103FC0002077206827E7204600F01BF8204600F005
:103FD00019F800202077206824E7204600F011F827
:103FE000204600F00FF800202077206821E72046C7
:103FF00000F007F8204600F005F800202077206840
:104000001EE7704770477047704790F87C10012991
:1040100001D1022112E02421C0F880100268136847
:10402000116821F0010123F0005311600021416665
:104030001360202280F87C10C0F88020084670476A
:104040007047B0B5044690F87C00012804BF0220F8
:10405000B0BD2420C4F88000012084F87C002068D2
:104060000568026822F001020260826822F0606244
:1040700011438160204602F065F920682021056027
:10408000002084F87C00C4F88010B0BDB0B50446B0
:1040900090F87C00012804BF0220B0BD2420C4F8A1
:1040A0008000012084F87C0020680568026822F006
:1040B00001020260826822F0604211438160204662
:1040C00002F040F9206820210560002084F87C007F
:1040D000C4F88010B0BD70477047704770B5044693
:1040E0000068C269016883685FEA027C6FD0644D32
:1040F00003EA050E01F4907515EB0E0572D0D50795
:1041000018BF11F4807507D001250562D4F88850D6
:1041100045F00105C4F8885003F00105960708D55D
:104120003DB102260662D4F8886046F00406C4F861
:104130008860560708D53DB104250562D4F888503B
:1041400045F00205C4F88850BCF1000F0CD501F011
:10415000200656EA0E0607D008260662D4F88860C4
:1041600046F00806C4F88860D4F88860002E71D044
:1041700092060AD501F0200103F08052891804D07C
:10418000E16E11B1204688472068D4F88810806815
:1041900001F0080100F04000401855D0204602F020
:1041A0009FF920688168490649D5816821F040015E
:1041B0008160A06F002842D032498163FDF75DFE27
:1041C000002847D0A06F816BBDE870400847950676
:1041D00008D501F0200C03F0805515EB0C0501D03B
:1041E000E16E15E0D6020AD513F4800607D04FF42D
:1041F000801101622046BDE87040FFF76DBF1606D2
:104200000BD501F0800603F400039B1905D0216F44
:1042100001B32046BDE87040084702EA01035B068F
:1042200019D5016821F0400101600020206720209D
:10423000C4F880002046BDE8704000F019BA20465E
:10424000BDE87040FFF749BF2046FFF746FF00205A
:10425000C4F8880070BD100207D511F0804004D06A
:104260002046BDE87040FFF736BFD001F2D5B1F16E
:10427000FF3FEFDC2046BDE87040FFF7E1BE00BF26
:1042800001000010CF64000810B5B0B10446D0F8AA
:10429000800028B9002084F87C00204600F026F831
:1042A0002420C4F880002068016821F00101016029
:1042B000204602F027FA012801D1012010BDA06A92
:1042C00010B1204602F068F82068416821F490415E
:1042D0004160816821F02A018160016841F001019B
:1042E00001602046BDE8104002F0BFB810B586B0AE
:1042F000044601A81421FBF7C3FF20681649884231
:1043000028D11648C16841F48021C160C16801F418
:10431000802100910099016841F00401016001A928
:10432000006800F00400009000980720059000202D
:10433000CDE90300022002904FF44060019008484C
:10434000FEF71EF8272005210022FEF76FFD27202B
:10435000FEF75EFD06B010BD004800404C10024064
:1043600000080048D0F88430202B06D1012329B161
:1043700022B190F87C30012B02D1022318467047FD
:10438000A0F85E20A0F85C208165012180F87C10F7
:104390000021C166D0F808C0BCF1000F0AD0BCF102
:1043A000805F0BD0BCF5805F0CD1016921B940F270
:1043B000FF110AE0016939B9FF2106E0016919B16D
:1043C0003F2102E0002100E07F21A0F860100021E1
:1043D000C0F888102221C0F8841001688B6843F06F
:1043E00001038B60436EB3F1005F03D1B0F8683016
:1043F00093420ED9BCF5805F01D1026982B1134AA4
:10440000002380F87C30C266086840F49070086031
:10441000B4E7BCF5805F01D102691AB1094A02E034
:10442000094AEDE7064A002380F87C30C266086836
:1044300040F480700860886840F0805088609DE794
:10444000596500085966000801650008FD65000807
:1044500010B59E4C2078FF2840F08680A07CFA386A
:10446000042800F28180DFE800F003093B7F41006F
:104470009748002180F8221001213DE06078102843
:1044800000F26C80DFE800F0096A4144474A4D5071
:1044900077896A6A6A6A979A9D0000F0B1FF4B4873
:1044A00001210170618809BA090CC180A18809BA8B
:1044B000090C0181E18809BA090C4181218909BAF5
:1044C000090C8181618909BA090CC181002104E0CC
:1044D0006318421801319B7813740A29F8D13DE022
:1044E0007B48012180F82210002105E07848002156
:1044F00080F822104FF4807101844FF090404FF407
:1045000000610122FEF70AF82EE0714802210DE059
:104510006F4803210AE06E48042107E06C4805213A
:1045200004E06B48062101E06948072180F8661025
:1045300080F86B10A178E2782379647980F86710AD
:1045400080F8682080F8693080F86F4080F86E301D
:1045500080F86D2080F86C1080F86A405C4800217B
:104560000184012180F82210194858491322BDE81E
:104570001040FFF7F7BE00F059FF1348002180F804
:104580002C10E079524981F84400D4F80200C1F8B7
:104590004700A07981F84200E0E700F07FFF0A4879
:1045A00000214B4A80F82D10A078E17882F83D0078
:1045B00082F83C10D2E700F0F9FECFE700F0D0FE21
:1045C000CCE700F047FFC9E7E80100200C0100201C
:1045D000C8060020D0F88030202B06D1012329B155
:1045E00022B190F87C30012B02D10223184670478B
:1045F0000023A0F85620C0F88830A0F854200165A8
:10460000012180F87C1021210367C0F88010426EE0
:104610008168B2F1005F06D1B1F5805F01D1016917
:1046200041B1124907E0B1F5805F01D1016961B183
:104630000C490BE00C49002380F87C3001670068CE
:10464000816841F400018160D0E70549002380F8CA
:104650007C3001670068016841F080010160C5E7B6
:10466000B56B0008496C0008F56B0008856C000804
:1046700080B516480178FF2920D1817CFB291DD106
:104680004178A1F10800082809D8DFE800F0050CFE
:10469000171717170F12150000F0C8FE0EE069B9C2
:1046A00000F0AEFE0AE000F0F9FE07E000F07EFE4A
:1046B00004E000F055FE01E000F0CCFE04480121CA
:1046C000417081780131817080BD00BF9000002071
:1046D00018000020FEE700000348FDF776BF00BF8A
:1046E0000148FDF7A2BF00BF80050020806A816BF2
:1046F00009B100228A63C16B09B100228A6300F00C
:104700008DBD806A01684A6842F400424A60102107
:1047100000F016B910B5846A2168086820F40040DA
:104720000860608DA0B1208D626A2431024462620B
:10473000608DFF2894BF638DFF232385E06BFDF719
:104740008FFC58B120461021BDE8104000F0F8B8A9
:1047500020462021BDE8104000F060B820464021EE
:10476000BDE8104000F05AB810B5846A226810689D
:1047700020F480401060608DA0B1208D616A2832E5
:1047800001446162608DFF2894BF638DFF23238500
:10479000A06BFDF765FC58B120461021BDE8104024
:1047A00000F0CEB820462021BDE8104000F036B819
:1047B00020464021BDE8104000F030B8CA0701D1C2
:1047C000002207E090F8412002F02803F222282B73
:1047D00008BF42228B0709D590F8413003F0280C1E
:1047E000F423BCF1280F08BF44231A430B0448BF2D
:1047F00042F0B802202904D0102905D142F09002DD
:1048000006E042F0200203E0402908BF42F04002E7
:10481000006801689143016070470000426B174BCC
:104820009A4213D0164B9A4210D00A04B82303EAD6
:10483000E272CB0718BF42F0F2028B0748BF42F08A
:10484000F402202908BF42F0200211E00AB2002A37
:1048500005DB102905D0202905D1602208E0B82207
:1048600006E0902204E04039B1FA81F149098A0159
:104870000068016811430160704700BFDD4D00080A
:10488000CD4F000800688169890744BF002181621B
:104890008169C90702BF816941F0010181617047E7
:1048A00070B50446006894F8411001F028012829E9
:1048B0001FD18169C1F30045816982680E0CC1680E
:1048C000E368022B1BD186EAD21313F0060F21D026
:1048D00001F0FE0620464FF40041FFF76FFF002075
:1048E0002946324684F840002046BDE87040FDF776
:1048F0006BBE0821C161002084F8400070BD2046D5
:104900004FF40041FFF75AFF002006F0FE0284F842
:1049100040000EE0A16C0131A164A16C022918BF16
:1049200070BD6FF39F2200210823A164C36184F846
:10493000401020462946BDE87040FDF745BE000006
:1049400010B5EB4B0446002290F8410084F8422059
:10495000E36262852838626C022841EA02016164E0
:1049600006D820460321FFF729FF2A4828210AE01C
:10497000204648F20301FFF721FF94F84110002080
:10498000602902D0202184F841106063216BA06B64
:10499000D0B1212901D0112916D121680A68520409
:1049A00042BF0A6822F480420A60FDF7A3FA012898
:1049B0001CD0A06B18498163002184F84010FDF7DA
:1049C0005CFA30B3A06B20E0E06B78B1222901D013
:1049D00012290BD121680A68120442BF0A6822F426
:1049E00000420A60FDF786FA012804D12046BDE89E
:1049F000104000F013BCE06B07498163002184F88C
:104A00004010FDF73AFA20B1E06B816BBDE8104031
:104A1000084710BDF9500008ED460008B0B504463F
:104A2000B3480025E0622020256384F84100480750
:104A3000656384F8425011D52068406A616A087045
:104A4000606A01306062208D40B1618D01380139AA
:104A500061852085606C40F004006064204648F267
:104A60000301FFF7ABFE20681021C16184F84050BC
:104A70002046BDE8B040FDF731BE00BFBCB50446DE
:104A800000680D462021C16194F84100212805D11C
:104A900020460121FFF792FE112008E094F8410022
:104AA000222805D120460221FFF788FE122020632C
:104AB0002068C94A4168114041608D49E162002186
:104AC0006163E90605D51021C161616C41F0040103
:104AD000616494F841106A0705D5602903D1406AE2
:104AE000C0B2019001982046FFF7CCFE616C94F8AB
:104AF0004100B1B9602814D094F84100212815D1A3
:104B0000202084F841000020206384F8400094F8BD
:104B1000421084F84200204640291DD1FDF7E2FDF5
:104B2000BCBD616C2046FFF70BFFBCBD94F8410093
:104B3000222818BFBCBD202084F84100002020633B
:104B400084F8400094F8421084F84200204640293E
:104B500005D1FDF7C6FDBCBDFDF7C2FDBCBDFDF72F
:104B6000BEFDBCBDB0B500250446202180F84250F2
:104B700090F8410084F8411021280DD1112065637F
:104B8000012120632046FFF719FE84F8405020469B
:104B9000BDE8B040FDF7A4BD12206563022120638B
:104BA0002046FFF70BFE84F840502046BDE8B04099
:104BB000FDF795BD70B5044600680D4620220668D5
:104BC00094F84110C261A1F12100092815D8DFE84D
:104BD00000F0050C141414141414050C204648F2AB
:104BE0000101FFF7EBFD212006E04048013081B2D2
:104BF0002046FFF7E3FD222020632068764A4168C3
:104C000041F4004141604168114041602046FFF796
:104C100039FE700408D4300410D52068016821F4EE
:104C200000410160E06B05E02068016821F48041EB
:104C30000160A06B10B100684068608568070FD5FF
:104C4000206825F00405406A616A0870606A0130D6
:104C50006062208D20B101382085608D013860852B
:104C6000608D18B1606C40F004006064002084F82E
:104C700042006063606C70B1616C2046FFF760FEBB
:104C800094F84100282818BF70BD20462946BDE889
:104C90007040FFF7C3BEE06A10F5803F0FD194F873
:104CA0004100202184F841100021222884F840107E
:104CB000216315D12046BDE87040FEF73BB80C4D8E
:104CC000204600F017F82020E56284F8410000201B
:104CD00084F8400020632046BDE87040FDF7FEBC2C
:104CE0002046BDE87040FEF726B800BF0180FFFFF8
:104CF0000000FFFF10B5044600680022016884F838
:104D000042204A0404D4090407D56FF4004101E0AD
:104D10006FF4804102681140016094F84100292835
:104D200010D12820012184F8410021202063204651
:104D3000FFF744FD002084F840002046BDE8104005
:104D4000FDF7F9BF94F841002A2818BF10BD2820AC
:104D5000022184F84100222020632046FFF72EFD27
:104D6000002084F840002046BDE81040FDF7E2BF77
:104D7000F8B5044600680E468169C90601D40020D2
:104D800027E01546771C08E03FB1FDF7CDFB202159
:104D90009EB1401BB04210D8206881698906F3D5C6
:104DA0001021C1612021C1612046FFF76BFD206801
:104DB000094A4168114041600421606C0843606405
:104DC000202084F84100002084F8400084F842004C
:104DD000012001B0F0BD00BF00E800FE1CB5044694
:104DE00090F84000012801D1022070E0012084F8F1
:104DF000400002EA0100C30617D40B0624D512F0C6
:104E0000400221D02068016821F040010160628DDC
:104E1000416882B3608D6FF39F21B0F5807F35D3F9
:104E2000FF204FF08073208539E020681021C16198
:104E30002021606C40F0040060642046FFF7EEFC27
:104E40002046FFF71FFD3FE0420605D480063BD514
:104E50002046FFF713FE37E0608D90B92068416867
:104E6000890131D4E16A11F5803F06D1416841F4EE
:104E70008041416028E0880103D42046FFF772FE9C
:104E800022E020464021FFF75BFD1DE0608D20857C
:104E9000E26A12F5803F14BFE36A4FF0007300220C
:104EA0000092C2B2204600F0A7F9208D618D081A49
:104EB000608594F8412020680168222A14BF41F4DB
:104EC000804141F400410160002084F8400002B0BC
:104ED00010BD0000E0B50378E248CDE90012A12141
:104EE0001A460123FDF7BAFC002818BF0120400034
:104EF00002B080BD2DE9FC410446334815461E46EC
:104F0000DAB200230090204600F076F9DDE9088748
:104F1000204641463A4600F0FBF918B1012002B0A4
:104F2000BDE8F081012E09D02068290A3A46816245
:104F30002046414600F0ECF90028EFD12068E9B2A4
:104F400000224346816220464021009700F08CF900
:104F5000002818BF012002B0BDE8F0812DE9FC4116
:104F60000446194815461E46DAB24FF08073009089
:104F7000204600F041F9DDE90887204641463A46DF
:104F800000F0C6F918B1012002B0BDE8F081012E91
:104F900009D02068290A3A4681622046414600F03D
:104FA000B7F90028EFD12068E9B2002243468162B8
:104FB00020468021009700F057F9002818BF0120F3
:104FC00002B0BDE8F08100BF002000802DE9F04173
:104FD0000446D0F82C8090F84000012804BF02203D
:104FE000BDE8F081012002EA010716460D4684F86B
:104FF0004000B80603D520462946FFF7DBFDF8063A
:1050000005D438075FD52046FFF74AFC5BE016F46D
:10501000404F36D0300406F480414FF0000006D5F2
:10502000E26B22B110684068B0FA80F0400961B3C9
:10503000A16B51B309680028496828D139B32068A9
:105040001021C16148F08071606CB1F1807F40F047
:105050000400606494F8410035D12138C1B20929B7
:105060000AD840F2033222FA01F1C90704D040B253
:1050700017A151F820002063616C2046FFF760FC07
:1050800021E020681021C1611DE00028D7D0B8F1CF
:10509000007F94F8410008BF282810D094F8410000
:1050A0002168102218F5803FCA610CD029280AD146
:1050B0002046FFF7E7FB2046FFF71CFE03E02046F3
:1050C0002946FFF7ABFC002084F84000BDE8F081E2
:1050D000210000002200000021000000210000004B
:1050E000210000002100000021000000210000003C
:1050F0002100000022000000F8B50446C66A90F8BE
:105100004000012801D102206EE0012002EA0107DF
:105110000D4684F84000B80603D520462946FFF71F
:1051200049FDF80615D4780726D4380751D4B807B6
:1051300057D5608D002859D0616A206811F8012B7D
:1051400082626162608D01386085208D0138208522
:1051500047E0608D28B320681021C161606C40F089
:105160000400606446F08070B0F1807F39D1616CDA
:105170002046FFF7E5FB34E0608D60B12068406AAF
:10518000616A0870606A01306062208D0138208594
:10519000608D01386085608D16F5803F21D0A0B10B
:1051A0001FE0B6F1007F94F8410008BF282814D012
:1051B00094F841002168102216F5803FCA6110D092
:1051C00029280ED12046FFF75DFB2046FFF792FD10
:1051D00007E02046FFF764FB03E020462946FFF77F
:1051E0001DFC002084F8400001B0F0BD46F0807046
:1051F000B0F1807FE9D0F4E76FF39F210068194395
:1052000041EA0241009A4368114323EA5252024B99
:105210001A40114341607047009C00FC90F8411017
:10522000602908D1202180F84110002180F8401029
:105230000163FDF7C8B9002180F840100163FDF754
:10524000FBB90000E0B503780648CDE90012A021C3
:105250001A460123FDF756FC002818BF0120400024
:1052600002B080BD800500202DE9F843DDF82080E4
:105270001D4616460F4681465C1CD9F80000806921
:105280003840C01BB0FA80F04009B04218D1002C61
:10529000F3D0FDF749F91DB1A0EB0800A842ECD905
:1052A000D9F8440040F02000C9F84400202089F8D3
:1052B0004100002089F8400089F84200012000E008
:1052C000002001B0BDE8F08370B515460E460446D7
:1052D00020688069800644BF002070BD20463146AA
:1052E0002A46FFF745FD88B9FDF71EF916B1401BA8
:1052F000B042EDD9606C40F020006064202084F85A
:105300004100002084F8400084F84200012070BD74
:10531000F8B515460E4604464F1C20688069800784
:105320001BD4204631462A46FFF722FD98B9002FAC
:10533000F3D0FDF7F9F816B1401BB042EDD9606C1F
:1053400040F020006064202084F84100002084F8B0
:10535000400084F84200012000E0002001B0F0BDD0
:1053600010B52DED028B574C0F4941F6FF10A4F8F4
:1053700013001C2091ED0E0B91ED148BE0750020B5
:10538000C4E9060020624FF47B40A08451EC100B6E
:10539000FBF713F9607551EC180BFBF70EF9A075CC
:1053A000BDEC028B10BD00BFE801002080B5454870
:1053B0000021C0F82110C0F81D1041F6FF01A0F82F
:1053C0001310FB2180F825103F4991F8602091F8D7
:1053D0005D3091F85EC091F85FE0427591F85C2015
:1053E000827591F86120C27591F8622091F863107E
:1053F0000376427680F81AC0C17680F81CE080BD42
:10540000DFF8C0C0FF21084AACF81310002105E006
:1054100050180CEB01030131807E58750A29F7D131
:10542000FB218CF8251070470C010020254841F223
:10543000FF31A0F813100021C0E9061101624FF4FA
:105440007B418184204991F84020B1F84110427598
:10545000C18270471B480021C0F82110C0F81D1000
:1054600041F6FF21A0F81310FB2180F82510B0F8B9
:1054700052108175090AB0F872200276B0F85A30DD
:105480008376B0F87AC080F81CC04175110AC175E6
:10549000190A41764FEA1C21C1767047094841F24A
:1054A000FF31A0F813100021C0E9061101624FF48A
:1054B0007B418184EB490A8F91F83B10A0F81520BD
:1054C000C17570479000002018000020C1F3045CF3
:1054D000C1F34061072300EB810003FA0CF302FAE9
:1054E0000CF241699943114341617047FEE77047EF
:1054F000704700000148FEF7D3B900BFCC0500207B
:105500000168CA68036C23F8022BB0F84620013A00
:10551000A0F846200364B0F846202AB94A6822F071
:1055200040024A60C18F01B1704700F069B801685C
:10553000B0F84620022A12D3CA68036C23F8022B63
:10554000B0F84620023AA0F846200364B0F846209E
:10555000012A0FD14A6842F480524A600AE0097B6E
:10556000026C1170016C01310164B0F84610013910
:10557000A0F84610B0F8461031B901684A6822F028
:1055800060024A60C18F01B1704700F039B8826B88
:10559000016832F8023BCB60C38F013BC387826353
:1055A000C28F32B94A6822F080024A60B0F84610D1
:1055B00001B1704700F024B8816BC38F4FF6FE72C3
:1055C000022B06D3D0F800C031F8023BCCF80C30E7
:1055D00005E00368097801321973816B0131C38FCB
:1055E0001A44C2878163C18F39B901684A6822F0C1
:1055F00080024A60B0F8461001B17047AFF30080F6
:1056000010B50446FCF790FF02462068416821F07F
:10561000200141602046642100F027F818B1206E77
:1056200040F020002066206E38B1012084F85D0033
:105630002046BDE81040FEF732B994F85D00012124
:1056400084F85D10042804D12046BDE81040FEF720
:105650006DBA2046BDE81040FEF7E6BA806A002128
:10566000A0F84610C187FEF71AB970B515460E4668
:105670004FF4C051044632462B4600F017F868B983
:10568000204631462A4600F054F838B920464FF4F7
:10569000C06132462B4600F009F828B1206E40F078
:1056A00020002066032070BD002070BD2DE9F04170
:1056B000984616460F460446551C206881683942B4
:1056C00004BF0020BDE8F081B7F5C06F08BF007BC4
:1056D000002DF2D0FCF728FFA0EB0800B042ECD37D
:1056E0002068416821F0E00141606168B1F5827F86
:1056F0000AD1A168B1F5004F02D0B1F5806F03D196
:10570000016821F040010160A16AB1F5005F07D195
:10571000016821F400510160016841F40051016009
:10572000002084F85C00012084F85D000320BDE8BF
:10573000F081F8B515460E4604464F1C2068806877
:1057400000062ED5002FF9D0FCF7EEFE401BB0422C
:10575000F4D32068416821F0E00141606168B1F54F
:10576000827F0AD1A168B1F5004F02D0B1F5806FF8
:1057700003D1016821F040010160A16AB1F5005F29
:1057800007D1016821F400510160016841F4005122
:105790000160002084F85C00012084F85D00032093
:1057A00000E0002001B0F0BD7047FDF7C5BA000071
:1057B000B0B5A8B01AAD1821281DFAF761FD6C46E6
:1057C0005021201DFAF75CFD4FF40070FDF75CFBE3
:1057D000022010212790CDE92500CDE923014021A9
:1057E000CDE921001E914FF480711D911A90284639
:1057F000FDF720FE0025032003211995CDE917555B
:1058000016900F20159015A8FDF7E0FC4FF0804092
:1058100012904FF0005011900448089503950090A5
:105820002046FDF787FB28B0B0BD00BF8480010093
:105830000548D0F8801041F47001C0F880104FF096
:1058400000610160704700BF08ED00E080B500F026
:105850001DF863480179427983790377427781772C
:1058600080BD00BF1800002080B580200121FBF71B
:1058700077F80320FCF738FC80200321FBF770F851
:105880000320BDE88040FCF72FBC000070B5534DED
:10589000B420A847524CA072B420A847A072B420EC
:1058A000A847604EA072307858B1C0280CD0D528D7
:1058B0000CD0EB280CD0F6280CD0FF280DD10320FB
:1058C00009E04FF42F7006E09A2004E0652002E022
:1058D000322000E01820FCF707FCB820A847E16A56
:1058E00008446071B820A847E16A08446071B82094
:1058F000A847E16A08446071307858B1C0280CD0DC
:10590000D5280CD0EB280CD0F6280CD0FF280DD1D0
:10591000032009E04FF42F7006E09A2004E0652090
:1059200002E0322000E01820FCF7DEFBB620A8479A
:10593000216B0844FA30A071B620A847216B0844B7
:10594000FA30A071B620A847216B0844FA30A07144
:10595000307858B1C0280CD0D5280CD0EB280CD00A
:10596000F6280CD0FF280DD1032009E04FF42F704A
:1059700006E09A2004E0652002E0322000E01820D2
:10598000FCF7B2FBBA20A847616B08442071BA202B
:10599000A847616B08442071BA20A847616B08448E
:1059A0002071307858B1C0280CD0D5280CD0EB2805
:1059B0000CD0F6280CD0FF280DD1032009E04FF4BD
:1059C0002F7006E09A2004E0652002E0322000E01B
:1059D0001820FCF789FB7B20A08170BD31090008ED
:1059E0001800002080B58020FAF78EFF40F01001EB
:1059F0008020BDE88040FAF7B3BF000010B5044630
:105A00008F202146FAF7ACFF0648447010BD00BF56
:105A100010B5044681202146FAF7A2FF0148047020
:105A200010BD00BF000000200F2887BF8C200F2171
:105A300001468C20FAF794BF70B5094E0C46054616
:105A4000C9B28420B047210A8520B047E9B2862038
:105A5000B047290A87203246BDE87040104700BF92
:105A600061090008000000002DE9F041DFF8C8845A
:105A7000D8F800000130C8F80000DFF8C004FEF7D5
:105A8000C0F9DFF8BC442078012802BFDFF8B40475
:105A9000D0F880005FEAC07064D0DFF89C17DFF8B0
:105AA000940709880078D1B3C8BBDFF8A404FBF7DA
:105AB0000DFFDFF8A847207800285DD0DFF89404B8
:105AC0000078012840F0E180D0481021FCF71AFD51
:105AD000002840F0DA80B8F80E00411CA8F80E103B
