:020000040800F2
:10000000480D0020ED01000897410008A9380008BC
:1000100095410008C504000863480008000000007E
:1000200000000000000000000000000095440008EF
:100030009B05000800000000994100089744000853
:10004000070200080702000807020008070200086C
:10005000070200080702000807020008A5050008BB
:10006000AB0500080702000807020008C9040008E1
:10007000D5040008E1040008ED04000807020008A8
:1000800007020008070200085902000807020008DA
:10009000070200080702000807020008070200081C
:1000A0003145000865450008494500083D45000800
:1000B000814500088D450008070200080702000876
:1000C00007020008070200080702000807020008EC
:1000D00007020008070200080702000807020008DC
:1000E0009D05000807020008070200080702000833
:1000F0005547000807020008494700087502000834
:100100000702000807020008070200089D410008D6
:10011000070200080702000899450008BD450008CD
:10012000070200080702000807020008070200088B
:100130000702000807020008810200080702000801
:10014000070200080702000807020008070200086B
:10015000070200080702000807020008070200085B
:10016000070200080702000807020008070200084B
:10017000070200080702000807020008070200083B
:10018000070200080702000807020008070200082B
:10019000070200080000000007020008070200082C
:1001A000070200080702000807020008070200080B
:1001B00007020008070200080702000807020008FB
:1001C00007020008070200080702000807020008EB
:1001D0000702000807020008DFF80CD000F02AF838
:1001E00000480047916A0008480D002006488047F3
:1001F00006480047FEE7FEE7FEE7FEE7FEE7FEE70C
:10020000FEE7FEE7FEE7FEE715450008D901000816
:10021000D2B201E000F8012B491EFBD27047002248
:10022000F6E710B513460A4604461946FFF7F0FFF5
:10023000204610BD064C074D06E0E06840F0010383
:1002400094E8070098471034AC42F6D3FFF7C8FF94
:10025000FC8B00081C8C000810B5044800F0DEFC84
:10026000BDE81040024800F0D9BC00006400002046
:10027000D0000020014800F0D1BC00003C0100206B
:10028000014800F0CBBC0000A80100202DE9F0419E
:10029000044600270D46006803F064FB064620680C
:1002A00003F05CFB304359D02068C1682C4E8901B3
:1002B00005D5617F012902D1217F01290BD0022DB3
:1002C0001DD0206803F04EFBB8B120688168C1F3EF
:1002D000400169B111E00125224902E08F422ED28E
:1002E0007F1C0268D2435206F8D440210160E8E73F
:1002F0008168314041F010018160012D11D02068EA
:1003000003F02CFB48B120688168C1F3400121B99A
:100310008168314041F020018160022D08D0032D19
:1003200004D0042501F0A8FB064613E00C25F9E7EC
:100330000825F7E701F0A0FB801B05280AD9E06D2E
:1003400040F01000E065206E40F0010020660120C2
:10035000BDE8F081206880682842EBD10020F7E7F3
:10036000C0FFFF7F000040A310B5846AE16D11F06B
:10037000500F06D0E16DC90625D5204600F04CFC93
:1003800010BDE06D40F40070E06520680168090769
:1003900016D503F0EFFA78B12068C0688004002811
:1003A0000ADBE06D20F48070E065E06DC00403D4EA
:1003B000E06D40F00100E065204600F02BFC10BD30
:1003C000C0688007EBE7616D496BBDE810400847E6
:1003D00010B5806AC16D41F04001C165016E41F008
:1003E0000401016600F018FC10BD10B5806A00F031
:1003F00012FC10BD70B50446006881688268C1F3C4
:10040000400112F0010F24D019BB816801F00D01E9
:10041000012910D18168104A1140891C816021682E
:100420000320086001F028FB05460EE001F024FBE4
:10043000401B022809D9E06D40F01000E065206EF5
:1004400040F001002066012070BD20688068C00770
:10045000ECD1002070BD0000C0FFFF7F70B50446E6
:100460000068816811F0010F28D18168144A114297
:1004700015D18168D5432940491C816001F0FCFAFF
:10048000064616E0816811F0010F03D1816829400A
:10049000491C816001F0F0FA801B022809D9E06D47
:1004A00040F01000E065206E40F001002066012061
:1004B00070BD20680168C943C907E3D1002070BD41
:1004C0003F000080FEE70000014801F01DB8000079
:1004D000C8070020014801F017B8000028080020D4
:1004E000014801F011B8000088080020014801F01F
:1004F0000BB80000E80800200D4902688A4201D2CA
:100500000C4901E00B492031D2B21423083AB2FB66
:10051000F3F2436C02F01F0223F0030319448164D9
:1005200004498031C1640121914001657047000098
:1005300008040240000802400179074A02EB8102E8
:100540004265054A4432491E826501F01F020121BD
:100550009140C16570470000FC08024030B5D0E909
:1005600013456560446D14B1D0E91645656090F897
:10057000444004F01F050124AC40056C6C60046825
:1005800063608368102B036803D099600068C260C1
:1005900030BD9A600068C16030BD70474FF4806024
:1005A00001F070B9022001F06DB9042001F06AB9C0
:1005B00070470000F8B500260446009690F85800F1
:1005C0000D4601280BD0012084F858002046FFF783
:1005D00011FF0100E06D04D040F010002AE002207D
:1005E000F8BD20F4885040F00200E0652068826881
:1005F000134B1A4005F080431A4342F000428260D8
:10060000104A20680EE0009B5B1C0093934209D3C4
:10061000E06D20F0020040F01000E06584F85860C2
:100620000120F8BD8368DB0FEDD1E06D20F0020002
:1006300040F00100E06584F858600846F8BD00000D
:10064000C0FFFF3F02DE04007047704770477047ED
:10065000704700002DE9F04F044690F858009BB019
:100660000E464FF0000A012810D0012084F85800EF
:1006700020684FF0A048474FDFF81C91474D4FF0DE
:10068000000B404506D12846009508E002201BB02B
:10069000BDE8F08FB8420AD14846CDF8009003F08B
:1006A00065F90090206803F061F940B109E0E16D5F
:1006B00041F02001E16584F858B00120E7E7009897
:1006C00050B1E06D40F02000E0654FF0010A00BF3E
:1006D00084F858B05046DAE720684146884201D095
:1006E000A84201D12E4800E02E48D6F800C02E4B7B
:1006F00040F61F72BCF1000F2CD0D0F808C094F85F
:1007000038802CF4604C4CEA483CD6F804804CEA23
:10071000080CC0F808C0D4F800C08C4501D0AC4526
:1007200004D18968AB6801F0010108E0B968D9F823
:10073000085001F0010105F001059B68294303F011
:1007400001031943C4D1B3683168194383689343E3
:1007500019431CE0866826F46046866026688E424F
:1007600001D0AE4204D18968AB6801F0010108E014
:10077000B968D9F8085001F0010105F001059B683E
:10078000294303F001031943A2D181689143816099
:100790009EE70000000400500005005000010050DA
:1007A0000003005000070050000600502DE9F84FEC
:1007B00000270446009790F85800DFF818840D468B
:1007C000B946012811D0012684F85860206803F04A
:1007D000C9F860B1E06D40F02000E0655FF001070E
:1007E00084F858903846BDE8F88F0220FBE7D5E939
:1007F00000210C23206803EA91131844036B01F0D5
:100800001F014FF01F0C0CFA01FCC2F3846223EAB3
:100810000C038A4013430363206803F0A3F8824665
:10082000206803F09BF85AEA00003CD1AA682968C6
:100830002068B2F1004F37D003F0A4F82068416976
:1008400021F00041416120686969C268C2F3C102B8
:10085000520091402A69042A31D000EB82002B68B3
:10086000026EDFF874C303F0F84302EA0C020B4394
:100870001A4342F00041016620682A69A96900EB29
:100880008200026E22F080720A430266297F22688B
:100890002869012910D0002102EB8000026E22F0AD
:1008A00000720A4302667DE0002203F06BF82068C4
:1008B000416941F00041C5E74FF00071ECE70021CC
:1008C00003F046F8400320684FF0000172D003F0B7
:1008D0003FF890FAA0F0B0FA80F1286842036ED099
:1008E00090FAA0F0B0FA80F0814204D100221146C3
:1008F000206803F056F80121206803F029F840032E
:1009000020684FF001015DD003F022F890FAA0F0CA
:10091000B0FA80F12868420359D090FAA0F0B0FAFA
:1009200080F0814204D100220121206803F039F8CF
:100930000221206803F00CF8400320684FF0020108
:1009400048D003F005F890FAA0F0B0FA80F12868DA
:10095000420344D090FAA0F0B0FA80F0814204D172
:1009600000220221206803F01CF80321206802F015
:10097000EFFF400320684FF0030133D002F0E8FF9F
:1009800090FAA0F0B0FA80F1286842032FD090FAD4
:10099000A0F0B0FA80F0814204D100220321206847
:1009A00002F0FFFF2068816811F0010F22D0ACE057
:1009B00000E004E002F0CCFFC0F384618DE7C0F3F7
:1009C000846091E702F0C4FFC0F38461A2E7C0F342
:1009D0008460A6E702F0BCFFC0F38461B7E7C0F310
:1009E0008460BBE702F0B4FFC0F38461CCE7C0F3DE
:1009F0008460D0E72A7B296850F8B03FC1F3120C1D
:100A000023EA0C0302F0180C744A22FA0CF20A4092
:100A100013430360E968414577D1286841031CD03E
:100A200090FAA0F1B1FA81F1491C01F01F010929E6
:100A30004FEA403132D8002912D000BF90FAA0F11D
:100A4000B1FA81F101F1010101F01F0106FA01F68D
:100A500009D100BFC0F3846109E0C0F38461E3E71A
:100A6000C0F38461EEE790FAA0F1B1FA81F101F1EF
:100A7000010101F01F0146EA816102D1C0F38460E7
:100A800003E090FAA0F0B0FA80F000F1010000F06D
:100A90001F0000EB400041EA005132E000290ED077
:100AA00090FAA0F1B1FA81F101F1010101F01F0109
:100AB00006FA01F606D100BFC0F3846106E0C0F378
:100AC0008461F1E790FAA0F1B1FA81F101F101013D
:100AD00001F01F0146EA816102D1C0F3846003E0A6
:100AE00090FAA0F0B0FA80F000F1010000F01F00D1
:100AF0003B4A00EB400002EB005041EA000141F0AC
:100B00000071AA68206802F03DFF36482B68034256
:100B10003FF466AE21684FF0A04C3348334E344D5D
:100B2000614501D0A94201D1024600E032469268F7
:100B3000DFF8C08002F0E072434503D0DFF8B880F0
:100B4000434520D15FEA02281DD4614506D02B4BD6
:100B500099427FF445AEA94200D0304642F40001EC
:100B6000826822F0E0720A438260254825490068C5
:100B7000B0FBF1F000EB4000800000E0401E009070
:100B80000028FBD12CE6DFF8808043450FD15FEAD7
:100B9000C2180CD4A94202D11C4B9942F2D0614533
:100BA00002D0A94200D0304642F080710CE0DFF85C
:100BB00060804345E6D15302E4D4A942E2D06145C6
:100BC00000D0304642F48001826822F0E0720A438D
:100BD000826005E600007F4000F0FF03FFFF070092
:100BE000000020FE000008800003005000070050B5
:100BF00000010050000021C31000C090000600500A
:100C000060000020400D0300000052C700050050A6
:100C1000000084CB70477047704700002DE9F84F03
:100C200004460068066845684FF0A048DFF89092D7
:100C3000404501D0484501D1A24800E0A248806863
:100C400000F01F07B0070ED5A8070CD5E06DC00651
:100C500003D4E06D40F40060E0652046FFF7F4FC4B
:100C6000216802200860DFF864B2DFF864A2700730
:100C700001D5680703D430073FD528073DD5E06D7F
:100C8000C00603D4E06D40F40070E065206802F017
:100C900071FE60B32068484501D1424604E05845E2
:100CA00001D1524600E00246824208D03FB1052FF2
:100CB00005D0092F03D0484503D1414606E0C1685D
:100CC00005E0584501D1514600E00146C968890454
:100CD0000DD4016809070AD502F044FE58B3E06D4F
:100CE00040F01000E065206E40F0010020662046D4
:100CF000FFF790FF21680C200860B00601D5A80618
:100D000003D470065FD568065DD5E06DC00603D4D8
:100D1000E06D40F40050E0652068C16C11F4C07FC4
:100D20001AD00021009102F025FE024620684845B5
:100D300014D1434617E02068416821F00C0141605E
:100D4000E06D20F48070E065E06DC004CFD4E06D0C
:100D500040F00100E065CAE70121E3E7584501D111
:100D6000534600E00346834208D03FB1062F05D02A
:100D7000072F03D0484503D1414606E0C16805E08E
:100D8000584501D1514600E00146C968009B23B98E
:100D90008B0112D48AB18A040FD4026852060CD592
:100DA00089020AD402F0DAFDF0B3E06D40F01000E1
:100DB000E065206E40F0010020662046FFF745FC0C
:100DC00021686020086030060BD5280609D5E06D43
:100DD00040F48030E065204600F096F921688020DC
:100DE0000860F0050CD5E8050AD5E06D40F4003048
:100DF000E0652046FFF72BFC21684FF48070086007
:100E0000B0050CD5A8050AD5E06D40F48020E0655A
:100E10002046FFF71DFC21684FF400700860F006C3
:100E200031D5E8062FD500E009E0E06BE8B1206895
:100E3000EFB3404501D0484512D1224811E0206867
:100E4000416821F060014160E06D20F48050E06570
:100E5000E06DC005B1D4E06D40F00100E065ACE7A5
:100E60001948806800F4604050B1E06D40F4806043
:100E7000E065206E40F0020020662046FFF7CCFEC1
:100E8000216810200860700517D5680515D5E06D3C
:100E900040F48040E065206E40F008002066216844
:100EA0004FF4806008602046BDE8F84F00E001E0A4
:100EB000FFF7CCBBC068C007D6E7BDE8F88F0000DD
:100EC00000010050000300500007005000050050D2
:100ED00000040050F8B54FF0000504002E460095C0
:100EE00002D0E06D10B107E00120F8BD204600F00F
:100EF0000DF9266684F8586020688168C1F3407156
:100F000019B18168744A1140816020688168C1F319
:100F1000007179B98168714A114041F08051816056
:100F20006F4870490068B0FBF1F000E0401E00908F
:100F30000028FBD120688168C1F3007141B9E16DDF
:100F400041F01001E165216E41F0010121660125AA
:100F500002F008FDE16DC90600D430B1E06D40F04B
:100F60001000E06501252846F8BDE06D20F4807092
:100F700040F00200E0652068816811F0010F27D180
:100F80004FF0A043584A984201D0904204D199684A
:100F9000966801F001010AE054498968544E01F055
:100FA0000101B66806F001063143524EB66806F0FC
:100FB000010631430CD1984201D0904201D14E48F4
:100FC00000E04E486168826822F47C120A43826025
:100FD000E168E06B627F0843A16841EA423108435F
:100FE00094F8241040EA0140012904D1218D444A9B
:100FF00002EB41410843E16A29B101F47871226BA7
:10100000014342EA01002268D1683E4B1940014386
:10101000D16020680169626B21F040611143016178
:10102000206802F09FFC0646206802F097FC064309
:101030002ED1207F94F83810800340EA41022168C5
:10104000C86844F2020398431043C860206900282E
:10105000206801690AD041F480310161206850F8AC
:10106000C01F22696FF30D01114307E021F48031A5
:101070000161206850F8C01F6FF30D01016094F802
:10108000400001280CD02068016921F001010161B4
:10109000606901282068016B21F00F0111D013E075
:1010A000D4E911010843D4E913121143084321681C
:1010B0000A6940F2FC739A43104340F00100086152
:1010C000E6E7226A521E11430163E06D20F0020040
:1010D00040F00100E06546E7C0FFFF5FC0FFFF7F13
:1010E00060000020400D030000010050000400508B
:1010F000000500500006005000030050000700509B
:101100000000FEFF0740F0FF704700002DE9F843A4
:10111000574D0446D0F800C080202F680021554A62
:101120004300C6007F1C4FF02009BCF1A04F07D040
:10113000DFF84481C4453ED12F60012F1ED025E049
:101140002F60012F07D1D56C45F40055D564D26CC2
:1011500002F4005200924A4D484A2A600522C5E92D
:101160000121C5E9031028461AE065650022042123
:101170001220AC6200F0EAFC122073E0D56C45F45A
:101180000055D564D26C02F4005200923B4A3D4DAA
:1011900014322A602422C5E90121C5E9031028463A
:1011A000C5E90791C5E9053600F00CFA0028DCD046
:1011B000FFF7FEF9D9E7344FBC4528D16F687F1C93
:1011C0006F60012F07D1D56C45F48045D564D26C92
:1011D00002F480420092294A2C4D28322A602522AE
:1011E000C5E90121C5E90310C5E90791C5E905363F
:1011F000284600F0E7F908B1FFF7DAF96565002243
:1012000005212F20AC6200F0A1FC2F202AE0204F06
:10121000BC452BD16F687F1C6F60012F07D1D56C47
:1012200045F48045D564D26C02F480420092134AA2
:10123000184D3C322A602722C5E90121C5E9031077
:10124000C5E90791C5E90536284600F0BBF908B1A4
:10125000FFF7AEF96565002205213E20AC6200F083
:1012600075FC3E20BDE8F84300F062BCBDE8F883A1
:101270004C00002000100240000100500800024015
:10128000C80700202808002000040050880800201B
:1012900000060050E80800202DE9F04704460068E9
:1012A0004FF0A048384F91468A46404501D0B84299
:1012B00001D1364900E03649896801F01F0502F086
:1012C00051FB00285DD194F85800012859D0012025
:1012D00084F85800002625B1052D02D0092D00D034
:1012E00003E02046FFF7BAF818B184F85860BDE86B
:1012F000F087E06D40F60161884340F48070E0655E
:101300002068B84201D1414605E02249884201D116
:10131000214900E00146814200D01DB9E06D20F472
:101320008010E065E06DC00404D5206E20F006005A
:10133000206600E02666616D1848C862616D184835
:101340000863616D1748486321681C20086084F8B1
:1013500058602068416841F0100141602068C16810
:1013600041F00101C16021684B4652464031606D39
:1013700000F088F921688A680B4B1A40121D8A60B8
:10138000B5E70220B3E70000000100500003005061
:1013900000070050000500500004005069030008D9
:1013A000EB030008D1030008C0FFFF7F70B50446BF
:1013B00090F85800012809D0012084F85800032132
:1013C0002046FEF763FF050002D027E0022070BD33
:1013D0002068C16821F00101C160606D90F825109E
:1013E000022907D100F01FF8050003D0E06D40F09E
:1013F0004000E0652068416821F01001416020460E
:1014000015B1FEF7F7FF09E0FEF7F4FF050005D17F
:10141000E06D20F4885040F00100E065002084F881
:101420005800284670BD10B590F8253000210122E3
:10143000022B03D00421C163012122E003681C6850
:1014400024F00E041C60836C1C6824F480741C60FF
:1014500003681C6824F001041C6090F84430046C9C
:1014600003F01F0302FA03F36360D0E913345C60F6
:10147000436D33B11C6824F480741C60D0E91634C9
:101480005C6080F82520002280F82420084610BDEA
:1014900070B590F82520002401212346022A07D0A8
:1014A0000422C26380F8251080F82430012429E04A
:1014B0000268156825F00E0515600268156825F0AC
:1014C00001051560826C156825F48075156090F82B
:1014D0004420056C02F01F0201FA02F26A60D0E9B2
:1014E00013255560426D32B1156825F4807515607D
:1014F000D0E91625556080F8251080F82430816BDE
:1015000001B18847204670BDF0B4016C0C680168D9
:101510000D6890F8442002F01F06042202FA06F338
:10152000234211D06B070FD50B689B0603D40B68C1
:1015300023F004030B6090F8441001F01F018A406F
:10154000016C4A60016B1DE0022303FA06F7274293
:101550004FF0000C4FF0010218D0AF0716D50C6801
:10156000A40605D40C6824F00A040C6080F8252039
:1015700090F8441001F01F018B40016C4B6080F823
:1015800024C0C16A00291AD0F0BC08470823B34020
:10159000234214D02B0712D50B6823F00E030B60E7
:1015A00090F84410036C01F01F0102FA01F1596038
:1015B000C26380F8252080F824C0416BE2E7F0BCCC
:1015C0007047000070B504000CD02B4A216814202D
:1015D000914209D2294A0A44B2FBF0F080006064CB
:1015E00027480AE0012070BD234A52420A44B2FB58
:1015F000F0F080006064204808382064022084F8FD
:1016000025000A6847F6F0708243D4E902031843C4
:10161000D4E904352B431843A3691843E3691843FD
:10162000236A1843104308602046FEF765FFA06850
:101630000025B0F5804F00D16560A16C207908606D
:10164000D4E9130141606068401E032808D8204691
:10165000FEF772FF606D0560D4E91601416002E09B
:101660006565A565E565E563012084F8250084F8D6
:101670002450002070BD000008040240F8FFFDBFA8
:101680000000024070B5044690F8240000250128AF
:101690000CD0012084F8240094F825600020012E4D
:1016A00006D084F824000225284670BD022070BDB3
:1016B000022684F82560E0632068066826F00106AB
:1016C00006602046FEF74AFF206B0028206801686C
:1016D00002D041F00E0106E021F004010160206813
:1016E000016841F00A010160A06C0168C90303D5DB
:1016F000016841F480710160606D18B1016841F4C6
:10170000807101602068016841F001010160CBE750
:1017100070B5044600F0B0F90546601C02D00448DC
:101720004068044400F0A8F9401BA042FAD370BD01
:10173000540000202DE9F84F00230126DFF824C1D2
:101740000F2788E006FA03F414EA01027ED023F0A2
:1017500003056544AA46D5F808909D074FEA157E13
:1017600007FA0EF505EA090B0095B0F1904F05D088
:101770003D4DA84205D14FF001081CE04FF0000894
:1017800019E03A4DA84202D14FF0020813E0384D5B
:10179000A84202D14FF003080DE0364DA84202D115
:1017A0004FF0040807E0344DA84202D14FF005087D
:1017B00001E04FF0060808FA0EF8D84524D1DFF80A
:1017C000BC80D8F8009029EA0209C8F8009008F116
:1017D0000408D8F8009029EA0209C8F8009008F136
:1017E0000408D8F8009029EA0209C8F8009008F126
:1017F0000408D8F800509543C8F80050009ADAF869
:1018000008509543CAF80850D0F800804FEA4309C1
:10181000032202FA09F248EA0208C0F80080DD0853
:1018200000EB8505AA46D5F820804FEA43794FEAB8
:10183000D96907FA09F528EA0508CAF82080C568B9
:101840009543C5604568A543456000E002E08468B3
:10185000944384605B1C31FA03F27FF473AFBDE8FC
:10186000F88F000000000140000400480008004814
:10187000000C00480010004800140048000401401B
:1018800070470000044910B50A68024202D008609F
:10189000FFF7F6FF10BD0000140401402DE9FC4FD6
:1018A000DFF8A0A1002301250AF1040B03244FF067
:1018B0000F0C0BF1040EBDE005FA03F632406FD0B9
:1018C0004F68012F05D0022F03D0112F01D0122F06
:1018D00017D1D0F808905F0004FA07F829EA080940
:1018E0000097D1F80C8008FA07F848EA0908C0F810
:1018F00008804768B7430E79C6F300169E403E4302
:101900004660C6684FEA430804FA08F7BE430197E9
:101910008F6807FA08F73743C7604E68022E01D078
:10192000122E13D1DE0800EB86060096366A5F079A
:10193000FF0E0CFA07F926EA0906D1F8109009FA09
:1019400007F949EA0609009EC6F820900668019F3B
:10195000BE430F7907F0030707FA08F7374307601C
:101960004E68F60065D5384E376E47F0010737668A
:10197000366E23F0030706F001060096334E3E4410
:10198000B146B6689F074FEA17780CFA08F7BE43CE
:10199000B0F1904F05D02E4FB84204D1012717E087
:1019A00047E0002714E02B4FB84201D102270FE097
:1019B000294FB84201D103270AE0284FB84201D18C
:1019C000042705E0264FB84201D1052700E006278D
:1019D00007FA08F73743C9F80870DAF80060574685
:1019E000D1F8048096435FEAC83800D516433E60BC
:1019F000DBF800605F46D1F8048096435FEA8838E0
:101A000000D516433E60DEF800607746D1F80480CA
:101A100096435FEAC82800D516433E60094F0C374D
:101A20003E68D1F8048096435FEA882800D51643C3
:101A30003E605B1C0A6832FA03F67FF43DAFBDE8F6
:101A4000FC8F000000040140001002400000014033
:101A50000004004800080048000C0048001000483E
:101A6000001400480069084000D0012070470AB106
:101A7000816170478162704701488068704700004B
:101A80005400002002488168426811448160704718
:101A90005400002010B50024032000F077F8002047
:101AA00000F008F808B1012401E000F025F8204614
:101AB00010BD000070B50E4E05460024706898B148
:101AC0004FF47A71B1FBF0F00A490968B1FBF0F00C
:101AD00001F0FEF840B9102D06D200222946501E12
:101AE00000F034F8356000E00124204670BD0000AD
:101AF00054000020600000200B4808B5016E41F042
:101B000001010166016E01F001010091816D41F05A
:101B100080518165806D00F080500090034881689D
:101B200041F48041816008BD001002400070004017
:101B3000002809DB00F01F020121914040098000CC
:101B400000F1E020C0F8001170470000F0B40E4B27
:101B50001B680C46C3F30223C3F10705042D00D90B
:101B60000425191D072901D2002300E0DB1E0126F0
:101B700006FA05F1491E214099409E40761E164006
:101B80003143F0BC02F06EBE0CED00E0064900F0FF
:101B9000070208684FF6FF03184040EA0220034A94
:101BA00010430860704700000CED00E00000FA05EB
:101BB00070B504004FF0000516D094F83A000228E2
:101BC00012D0206800260660204600F08BF82068BE
:101BD00000680649084202D184F83A6000E0012515
:101BE00084F83960284670BD0125FBE7FFFF07E058
:101BF000F8B504004FF0000514D094F83A00052819
:101C000010D094F83A0002280CD03448016E41F00C
:101C100001010166006E00F00100009094F83A00A6
:101C200010B104E00120F8BD002084F839002046FE
:101C300000F07AF8A0682A4A4FF48071402836D024
:101C4000602834D020680368E66A23F01003334329
:101C50000360D4E901031843D4E90336334318433E
:101C6000237D012B00D000210843616A0843A16A4B
:101C70000843218E40EAC14094F8341040EA0161E3
:101C800020680368134019430160206881690029B6
:101C900009DBD4E906121143226A836923F03F036A
:101CA0001A431143816194F83A0090B114E020681E
:101CB0000368E66A23F0100333430360D4E90103A9
:101CC0001843267D2369012E00D000210B431843C1
:101CD000CBE7012084F83A002846F8BD0010024006
:101CE000113E00E001680E48814203D180214FF08F
:101CF000904011E00A4A0B48121D914201D1012186
:101D00000AE0074A0832914201D1491404E0044A2A
:101D10000C32914202D1C914FFF70CBD704700008C
:101D2000000301400004004830B587B00446142188
:101D30006846FEF774FA24682448002224490323E5
:101D400084420FD1C86C40F00100C864C86C694679
:101D500000F0010005908020CDE9000302924FF0D1
:101D600090400EE0194D1B482D1DAC420DD1CC6C9E
:101D700044F00204CC64C96C01F002010591012118
:101D80001EE0FFF78BFD07B030BD104D0835AC42AB
:101D900009D1CC6C44F00204CC64C96C01F002019E
:101DA000059169140CE0094D0C35AC42EBD1CC6CBB
:101DB00044F00204CC64C96C01F002010591E914FD
:101DC000CDE9001302926946DBE700000003014001
:101DD00000100240000400482DE9F04104004FF0DB
:101DE000000807D094F83A00052803D094F83A0088
:101DF000012804D04FF001084046BDE8F08120687A
:101E0000016841F0020101602068016841F01001A1
:101E100001602068016841F4006101602068016888
:101E200041F4405101602068016841F00101016006
:101E3000102608252068016821F0F85141EA066162
:101E400001600220FFF764FC20680068400001D5B3
:101E50002E4400E0761B6D08ECD12068016821F06B
:101E6000F85141EA066101600220FFF751FC206849
:101E70000168490006D50168761C21F0F85141EA55
:101E8000066101602068016821F4405141F48051ED
:101E90000160102508272068016821F4780141EAD3
:101EA000C54101600220FFF733FC20680068400054
:101EB00001D53D4400E0ED1B7F08ECD120680168AE
:101EC00021F4780141EAC54101600220FFF720FCBE
:101ED00020680168490006D501686D1C21F478016D
:101EE00041EAC54101602068016821F40061016098
:101EF0002068016821F00101016054F82C0B016891
:101F000021F002010160102084E8610054F82C0DDA
:101F1000016821F4780141EAC54101602068016847
:101F200021F0F85141EA0661016065E7002138B10E
:101F300090F83A20052A03D090F83A20012A02D0DE
:101F40000121084670470268136843F001031360DB
:101F5000042280F83A20F4E72B492C4B0A683221FE
:101F60004A432B4940B1B0F5007F086829D020F4DE
:101F7000C06040F480602CE00868C0F34120022873
:101F800004D051F8800F20F4807022E0D1F8800056
:101F900020F48070C1F88000086820F4C06040F42C
:101FA00000700860B2FBF3F0401C00E0401E4A697C
:101FB000520501D50028F9D1486940050AD503200A
:101FC0007047C0F34120022806D051F8800F40F43A
:101FD0008070086000207047D1F8800040F4807065
:101FE000C1F88000086820F4C06040F40070086008
:101FF000B2FBF3F0401C00E0401E4A695205DBD5FD
:102000000028F9D1D8E700006000002040420F000E
:10201000007000402DE9F843044600680026BB4DDF
:1020200000035ED5A86D0027C00008D4A86D40F05D
:102030008050A865A86D012700F080500090DFF85F
:10204000D092D9F8001041F48071C9F80010FFF760
:1020500013FD804606E000BFFFF70EFDA0EB080071
:1020600002282BD8D9F80000C005F5D5D5F8900086
:1020700010F4407014D0216D814211D0D5F8900039
:10208000D5F8901020F4407041F48031C5F89010DC
:10209000D5F8901021F48031C5F89010C5F8900063
:1020A000C00711D0FFF7E8FC804641F2883907E00D
:1020B000FFF7E2FCA0EB0801494501D903260BE03C
:1020C000D5F890008007F3D5D5F89000216D20F465
:1020D00040700843C5F890001FB1A86D20F08050F3
:1020E000A8652078C00707D0D5F88800616820F07F
:1020F00003000843C5F888002078800707D5D5F885
:102100008800A16820F00C000843C5F888002078FA
:10211000400707D5D5F88800E16820F03000084373
:10212000C5F888002078000707D5D5F88800216910
:1021300020F0C0000843C5F888002078C00607D505
:10214000D5F88800616920F440700843C5F888001C
:102150002078800607D5D5F88800A16920F4406072
:102160000843C5F888002078400607D5D5F88800D0
:10217000E16920F440500843C5F888002078000643
:1021800007D5D5F88800216A20F440400843C5F8F7
:1021900088002088C00507D5D5F88800616A20F43A
:1021A00040300843C5F888002068800307D5D5F87B
:1021B0009C00A16A20F003000843C5F89C00208819
:1021C000800507D5D5F88800E16A20F4402008434F
:1021D000C5F88800208840050FD5D5F88800216B08
:1021E00020F440100843C5F88800206BB0F5801F2C
:1021F00003D1E86840F48010E860208800050FD51E
:10220000D5F88800616B20F440000843C5F88800C9
:10221000606BB0F5800F03D1E86840F48010E8608F
:102220002088C0040FD5D5F88800A16B20F040703D
:102230000843C5F88800A06BB0F1807F03D1E8683F
:1022400040F48010E86020884FF0006180040ED5D3
:10225000D5F88800E26B20F040601043C5F8880094
:10226000E06B884203D1E86840F48010E860208881
:1022700040040ED5D5F88800226C20F04060104351
:10228000C5F88800206C884203D1E86840F48010CB
:10229000E860208800040FD5D5F88800616C20F034
:1022A00040500843C5F88800606CB0F1805F03D1EE
:1022B000E86840F48030E8602068C0030FD5D5F8A6
:1022C0008800A16C20F040400843C5F88800A06C4D
:1022D000B0F1804F03D1E86840F48030E8602068B6
:1022E00040030FD5D5F89C00E16C20F44010084362
:1022F000C5F89C00E06CB0F5001F03D1E86840F41D
:102300008010E8603046BDE8F8830000001002400D
:10231000007000402DE9F0470E4605004FF0000721
:1023200025D0DFF89C81D8F8000000F00F00B04203
:102330000CD2D8F8001021F00F013143C8F800107A
:10234000D8F8000000F00F00B04210D129685D4CB1
:10235000C80741F2883A52D06868DFF86C910328C8
:1023600008D00228206826D04005002825DB01205F
:10237000BDE8F08720688001F9D5E068E068534B3C
:10238000C0F30310401CB3FBF0F0E268C2F3062276
:102390005043E268C2F34162521C5200B0FBF2F0BB
:1023A000484515D9A06810F0F00F0AD088070FD55E
:1023B000A86830B10CE08003D7E700F08FF84845FB
:1023C00006D9A06820F0F00040F08000A0608027CF
:1023D000A068696820F003000843A060FFF74CFB89
:1023E000814605E0FFF748FBA0EB090151453AD8CB
:1023F000A068696800F00C00B0EB810FF2D128688A
:10240000810714D5400703D5A06840F4E060A060C0
:102410002878000705D5A06820F4605040F4E060FB
:10242000A060A068A96820F0F000084304E0802FB5
:1024300003D1A06820F0F000A060D8F8001040465A
:1024400001F00F01B14216D9016821F00F013143AB
:102450000160FFF711FB074607E000BFFFF70CFB29
:10246000C11B514501D9032082E7D8F8000000F0D4
:102470000F00B042F2D12878400705D5A068E9687E
:1024800020F4E0600843A0602878000706D5A06823
:10249000296920F4605040EAC100A06000F01EF8F5
:1024A000A1680B4AC1F30311515C01F01F01C84040
:1024B0000849086008480068BDE8F047FFF7FABA25
:1024C000002002400010024000B4C4040024F400C4
:1024D000EC8B00086000002054000020134988683D
:1024E000C0F381021248012A0AD08A68C2F381022D
:1024F000022A05D08A68C2F38102032A01D0002093
:102500007047CA6802F00303CA68C2F30312521C80
:10251000B0FBF2F0CA68C968C2F306225043C1F3A7
:102520004161491C4900B0FBF1F0704700100240C6
:102530000024F4002DE9F84304007AD02078FA4D05
:10254000C00747D0A868E96800F00C0001F003015B
:102550000C2802D0082817D001E0032914D06068A5
:10256000B0F5803F17D0B0F5A02F286817D020F421
:1025700080302860286820F4802028606068E0B1FE
:10258000FFF77AFA064614E02868800322D56068CF
:102590000028D2D01EE0286840F48030EDE740F4F7
:1025A00080202860F7E700BFFFF766FA801B6428E9
:1025B00070D828688003F7D50CE0FFF75DFA06466F
:1025C00005E000BFFFF758FA801B6428F0D82868A0
:1025D0008003F7D4207880074CD5A868E96800F01C
:1025E0000C0001F003010C2802D004280DD001E0FA
:1025F00002290AD0E068002828682BD040F48070B7
:102600002860FFF739FA064619E02868400502D528
:10261000E068002891D06868217C20F0FE4040EA04
:1026200001606860C1480068FFF744FA002800D1E3
:1026300020E076E1FFF720FA801B0228B8D828684E
:102640004005F7D56868217C20F0FE4040EA016033
:1026500068600FE020F480702860FFF70DFA0646EE
:1026600005E000BFFFF708FA801B0228A0D8286801
:102670004005F7D42078000729D560690028D5F8EF
:10268000940013D040F00100C5F89400FFF7F4F96E
:10269000064606E090E000BFFFF7EEF9801B022837
:1026A00086D8D5F894008007F6D510E020F0010018
:1026B000C5F89400FFF7E0F9064604E0FFF7DCF9FF
:1026C000801B022878D8D5F894008007F6D42078AB
:1026D000400761D5A86D0026C00008D4A86D40F061
:1026E0008050A865A86D012600F0805000909048A9
:1026F0000168C90511D40168804641F48071016008
:10270000FFF7BAF9074604E0FFF7B6F9C01B022845
:1027100052D8D8F80000C005F6D5A068012815D019
:102720000528D5F8900016D020F00100C5F89000DB
:10273000D5F8900020F00400C5F89000A06841F2A0
:102740008838B8B1FFF798F907460EE0D5F8900041
:1027500040F00100F0E740F00400C5F89000F5E714
:10276000FFF78AF9C11B414526D8D5F890008007AC
:10277000F6D50CE0FFF780F9074604E0FFF77CF997
:10278000C11B414518D8D5F890008007F6D41EB17A
:10279000A86D20F08050A8652078800629D5A06912
:1027A0000028D5F8980013D040F00100C5F8980033
:1027B000FFF762F9064606E077E000BFFFF75CF935
:1027C000801B022877D8D5F898008007F6D510E04E
:1027D00020F00100C5F89800FFF74EF9064604E026
:1027E000FFF74AF9801B022865D8D5F898008007C2
:1027F000F6D4E069F0B3A968C1F38101032961D07F
:102800000228286820F0807028600BD0E86820F04B
:102810000300E860E86847490840E860FFF72CF9E2
:1028200004464BE0FFF728F9064604E0FFF724F9D9
:10283000801B02283FD828688001F7D4F4E90801FA
:102840006FF00F0202EB01110843218A520449087C
:1028500002EB4151A26841EA02210843217D4FF079
:102860007E42490802EB41610843217B40EAC16096
:10287000E96800E062E0304A11400843E8602868F7
:1028800040F080702860E86840F08070E860FFF7F2
:10289000F3F8044605E000BFFFF7EEF8001B02283E
:1028A00009D828688001F7D548E004E0FFF7E4F88C
:1028B000001B022802D90320BDE8F88328688001A4
:1028C000F4D43BE00128F7D0E868226A00F0030165
:1028D000914226D1616A00F0F0020901103991425B
:1028E0001FD1A26A00F4FE41B1EB022F19D194F876
:1028F0002C2000F07841B1EBC26F12D1218E00F490
:10290000C00249084905A1F50011914209D194F886
:10291000341000F0C06049084906A1F100718142FD
:102920000CD00120C8E70000001002405400002035
:1029300000700040FFFFEEFE0C809F010020BBE70F
:102940007047000038B5016804464A688868C0438B
:10295000430606D5C30704D1D3435B0601D4E16C1B
:1029600005E0830708D4D3431B0605D4216D01B0CD
:102970002046BDE830400847830603D5430601D50D
:10298000C30551D4D3439B064ED443060AD494F8CE
:102990005D30032B49D0236E43F004032366CB68DC
:1029A0008B680093830609D4236E43F001032366EA
:1029B0008B6800930B6823F040030B60C00506D4BE
:1029C000206E40F008002066206880680090206E2D
:1029D000002829D02068416821F0E00141600120F1
:1029E00084F85D00900701D4D00722D020684168A8
:1029F00021F003014160114DA06D40B18563A06DD0
:102A0000FEF746FD18B1206E40F040002066606D74
:102A1000002809D08563606DFEF73AFD002803D0D9
:102A2000206E40F04000206638BDC868886800907D
:102A300038BD2046FFF784FF38BD00001143000871
:102A40002DE9F041040005D00025A56294F85D0051
:102A500018B107E00120BDE8F08184F85C50204601
:102A600000F04AF8022384F85D302068016821F004
:102A700040010160E0684FF4E066B04201D90021F6
:102A800001E04FF48051B0F5706F02D0B04200D039
:102A9000A562276B012227B9B04201D9236300E068
:102AA0002263D4E901031843D4E9043633431843BD
:102AB000238B03F400731843E3691843236A184314
:102AC000A36A184323681860636B606AA669184399
:102AD0000427E36807EA164633431843084321688E
:102AE00048602068C16921F40061C161256684F8ED
:102AF0005D200020AFE7000070B586B004461421C9
:102B00006846FDF78CFB2949206888424BD128484C
:102B1000816D41F400418165816D01F400410591B1
:102B2000C16C41F00101C164C16C01F0010105916A
:102B3000C16C41F00401C164C16C01F00401059154
:102B4000C16C41F00201C164C06C022500F00200BA
:102B500005904FF4004000900024CDE90154062672
:102B6000CDE9034669464FF09040FEF797FE7002AC
:102B70000090CDE90154CDE9034669460D48FEF7C2
:102B80008DFE20200090CDE90154CDE90346694631
:102B90000948FEF783FE002201213320FEF7D6FF0D
:102BA0003320FEF7C5FF06B070BD0000003C0040BA
:102BB0000010024000080048000400487047000070
:102BC000F0B590F85C500024012D0CD0012580F860
:102BD0005C5090F85D5000264768012D0BD0B7F58A
:102BE000827F06D101E00220F0BD87680FB9042D75
:102BF00001D002243AE0D1B1CAB1C3B190F85D501E
:102C0000042D02D0052580F85D5006668163838718
:102C1000C3870264A0F84430A0F84630C168B1F51B
:102C2000E06F06D91349C1641349016507E0012427
:102C30001CE01249C16412490165022B04D30168EA
:102C40004A6822F4805203E001684A6842F48052E4
:102C50004A6001684A6842F0E0024A6001680A6816
:102C6000520603D40A6842F040020A6080F85C60B1
:102C70002046F0BDA941000845420008DF41000898
:102C80007742000810B50F4C80212046FEF7EAFE7F
:102C900030B180212046FEF7E5FE012806D007E08E
:102CA000012280212046FEF7E2FE01E005F0C2FE8F
:102CB000054ABDE810400423A2F10D010348FFF7C7
:102CC0007FBF0000000400481C0000200403002017
:102CD00010B5401EB0F1807F01D3012010BD4FF030
:102CE000E02460610F21601701F0BCFD0020A061AD
:102CF00007202061002010BD70477047704700001A
:102D0000F0B590F83C20012A58D0012280F83C20F0
:102D1000CA688B6822F440721A434B6822F48062BE
:102D20001A430B6822F400621A430B6922F48052A2
:102D30001A434B6922F400521A430B6B22F480426F
:102D40001A430B8B22F4702242EA03421C4C0368A4
:102D500000271C4D1C4EA34203D0AB4201D0B3420E
:102D600005D1D1F81CC022F0805242EA0C02A342E5
:102D700003D0AB4201D0B3421BD1B1F828C022F43A
:102D8000700242EA0C52D1F820C022F0807242EA6E
:102D90000C02D1F824C022F0007242EA0C02A342D5
:102DA00003D0AB4201D0B34203D1C96A22F0005232
:102DB0000A435A6480F83C700020F0BD0220F0BD48
:102DC000002C0140003401400050014070B5054620
:102DD00090F83C000C4601281CD0012085F83C00EE
:102DE000D4E90021A368286801F031FDD4E9040189
:102DF00001432868826D237B22F0E602012B0BD071
:102E000000231A43114341F001018165002085F838
:102E10003C0070BD022070BD2023F2E77047000027
:102E20002DE9F0418046774800F50577804528D1A7
:102E300039463A79C888CB89401C80B2022A0DD025
:102E4000C988491E89B2012A0CD0042A10D0072A49
:102E50000ED0032A0ED0062A0CD00CE0F88098423F
:102E600003D008E0F980994205D105F015FB02E096
:102E7000F88000E0F9804FF08040016921F4801172
:102E8000016160484C3800F52574804525D12079D2
:102E900002280AD001280BD0042813D0072811D00B
:102EA000032812D0062810D012E0E088401C01E070
:102EB000E088401E80B2E080E189884208D105F0B8
:102EC0009BFB05E0E088401C01E0E088401EE080BC
:102ED0004D48016821F4801101604A484C3000F5EA
:102EE0000C75804525D1287902280AD001280BD0FD
:102EF000042813D0072811D0032812D0062810D098
:102F000012E0E888401C01E0E888401E80B2E880BA
:102F1000E989884208D105F029FC05E0E888401CD1
:102F200001E0E888401EE8803848016821F48011FB
:102F30000160374800F5C076804525D130790228F8
:102F40000AD001280BD0042813D0072811D0032859
:102F500012D0062810D012E0F088401C01E0F08862
:102F6000401E80B2F080F189884208D105F0B2FCA1
:102F700005E0F088401C01E0F088401EF080254804
:102F8000016821F48011016023480079032803D0EF
:102F9000052801D0062832D1F888B846A0F57F412F
:102FA000DD390027222902D9401E042803D805F064
:102FB00073FAA8F80670E088A0F57F41DD39222970
:102FC00002D9401E042802D805F016FBE780E888E5
:102FD000A0F57F41DD39222902D9401E042802D8FC
:102FE00005F0C4FBEF80F088A0F57F41DD39222990
:102FF00002D9401E042802D805F06CFCF780BDE819
:10300000F0810000B4030020102C014010040040A7
:10301000E40400201034014000000020704700004C
:10302000F0B590F83C20012A43D0012580F83C50AF
:10303000022280F83D2003685A689C681E4E1F4F8C
:10304000DFF87CC0B34203D0BB4201D0634504D15A
:1030500022F4700E4A6842EA0E02DFF868E002EAE3
:103060000E02D1F800E04EEA020EC3F804E0026856
:10307000B24212D0B2F1804F0FD0134B9A420CD013
:10308000124B9A4209D0124B9A4206D0BA4204D04F
:10309000104B9A4201D0624504D1896824F0800324
:1030A0001943916080F83D50002180F83C1008469B
:1030B000F0BD0220F0BD0000002C014000340140B2
:1030C000005001408FFFFFFD000400400008004059
:1030D000000C004000400140704710B5040003D0D0
:1030E00094F83D0010B107E0012010BD002084F8E5
:1030F0003C00204600F022F8022084F83D00211D0B
:10310000206801F02DFB012084F8480084F83E007F
:1031100084F83F0084F8400084F8410084F84200BD
:1031200084F8430084F8440084F8450084F846009D
:1031300084F8470084F83D00002010BD08B5274AF8
:103140000168274891420ED1816D41F010018165DF
:10315000806D002200F01000009011463620FEF72E
:10316000F5FC362034E01F4A91420ED1816D41F0CA
:1031700020018165806D002200F020000090032175
:103180003720FEF7E3FC372022E0174A91420ED1A8
:10319000016E41F400310166006E002200F400303F
:1031A000009003211920FEF7D1FC192010E00F4AEE
:1031B000914211D1016E41F480210166006E00221E
:1031C00000F48020009003211A20FEF7BFFC1A2093
:1031D000BDE80840FEF7ACBC08BD00000010004090
:1031E000001002400014004000440140004801402B
:1031F00090F83D10012901D001207047022180F88C
:103200003D100168CA6842F00102CA600068816826
:10321000064A1140062906D0B1F5803F03D0016867
:1032200041F001010160002070470000070001002B
:103230000168CA6822F00102CA6001680A6A41F2A4
:1032400011131A4207D10A6A9B001A4203D10A6875
:1032500022F001020A60012180F83D100020704731
:103260002DE9F0410D46040003D094F83D0018B15B
:1032700008E00120BDE8F081002084F83C002046F1
:1032800000F042F8022084F83D00206881681D4A61
:1032900011408160211D206801F062FA2268906867
:1032A0009169166A2B68AF69034340F2033081438A
:1032B00041EA0721A868EF6908434FF6FC418843BB
:1032C000E96840EA0720014328692F6A000140EAC3
:1032D0000730084369686D6926F0AA0646EA0515B5
:1032E000294393602268906154F8480B01620120E1
:1032F00004F81F096075A075E0762077207500201E
:10330000B8E70000F8BFFEFF2DE9F04786B004469D
:1033100014216846FCF783FF8A4B216800248A4801
:1033200010260225894A4FF006084FF0904A99422C
:103330004AD1016E41F400610166016E01F4006141
:103340000591C16C41F00401C164C16C01F004013C
:103350000591C16C41F00101C164C06C0096CDE9DA
:10336000015400F00100CDE9045069460394104671
:10337000FEF794FA4FF440700090CDE90154CDE986
:10338000034869465046FEF789FA002203211820B7
:10339000FEF7DCFB1820FEF7CBFB002203211920EF
:1033A000FEF7D4FB1920FEF7C3FB002203211A20ED
:1033B000FEF7CCFB1A20FEF7BBFB002203211B20EB
:1033C000FEF7C4FB1B206FE0B1F1804F40D0604B93
:1033D000604F4FF00A0999426BD1816D41F00201B3
:1033E0008165816D01F002010591C16C41F001011F
:1033F000C164C16C01F001010591C16C41F0020191
:10340000C164C06C0096CDE9015400F00200CDE922
:103410000450694603945046FEF740FA0820009095
:10342000CDE90154CDE9034969463846FEF736FA3D
:103430000096CDE9015469463846CDE90345FEF7CB
:103440002DFA002203211D20FEF780FB1D202BE01A
:10345000816D41F001018165816D01F001010591EE
:10346000C16C41F00101C164C06C694600F001000B
:10347000059003200090CDE901540120CDE90340DF
:1034800056465046FEF70AFA20200090CDE9015436
:1034900069463046CDE90345FEF700FA00220321D4
:1034A0001C20FEF753FB1C20FEF742FB06B0BDE8D4
:1034B000F087294B9942F9D1016E41F40051016620
:1034C000016E01F400510591C16C41F00401C16429
:1034D000C16C01F004010591C16C41F00201C164AD
:1034E000C06C402600F0020000960590CDE9015422
:1034F0000420CDE9034069461046FEF7CFF9009657
:10350000CDE90154CDE9034869463846FEF7C6F9CE
:10351000B0000090CDE90154CDE903496946384631
:10352000FEF7BCF9002203212C20FEF70FFB2C2014
:10353000FEF7FEFA002203212E20FEF707FB2E20C5
:10354000B2E70000002C01400010024000080048D3
:1035500000040040000400480034014070B590F8B9
:103560003E60044690F83F5090F8443090F8452073
:10357000022021B1042914D0012E25D11EE0012EF4
:1035800022D1012B20D184F83E0084F8440001228E
:103590000021206801F04EF92068C16841F0020165
:1035A0002FE0012D10D1012A0ED184F83F0084F8BC
:1035B00045000421206801F03DF91EE0012D03D1F2
:1035C000012B01D1012A01D0012070BD84F83E00F9
:1035D00084F83F0084F8440084F84500012200216B
:1035E000206801F027F901220421206801F022F966
:1035F0002068C16841F00201C1602068C16841F0E3
:103600000401C1602068016841F0010101600020EF
:1036100070BD30B5044600680D002ED0042D4FF06B
:10362000000233D0002101F005F9002204212068B6
:1036300001F000F92068C16821F00201C160206832
:10364000C16821F00401C1602068016A41F21112D1
:10365000114207D1016A9200114203D1016821F0A1
:10366000010101600120ADB1042D17D004F83E0F17
:103670006070A071E071002030BD0022114601F0A1
:10368000D9F82068C16821F00201DCE7042101F0CB
:10369000D1F8D4E704F83E0FA071ECE704F83F0F2F
:1036A000FAE7704770B50446006801694FF00005FD
:1036B000C943890715D4C168C943890711D4E91ED4
:1036C000016101202077206880698007204602D0B0
:1036D000FFF7E7FF04E000F0E3F8204600F0E1F830
:1036E000257720680169C943490717D4C168C943D0
:1036F000490713D46FF0040101610220207720688C
:10370000806910F4407F204602D0FFF7CAFF04E032
:1037100000F0C6F8204600F0C4F82577206801695B
:10372000C943090716D4C168C943090712D46FF009
:1037300008010161042020772068C06980072046C5
:1037400002D0FFF7AEFF04E000F0AAF8204600F038
:10375000A8F8257720680169C943C90617D4C1684C
:10376000C943C90613D46FF0100101610820207706
:103770002068C06910F4407F204602D0FFF791FF17
:1037800004E000F08DF8204600F08BF825772068E3
:103790000169C943C90708D1C168C943C90704D130
:1037A000891E0161204600F07DF820680169C94347
:1037B000090609D4C168C943090605D46FF0800120
:1037C00001612046FFF799FA20680169C943C905DC
:1037D00009D4C168C943090605D46FF48071016139
:1037E0002046FFF789FA20680169C943490609D4D0
:1037F000C168C943490605D46FF040010161204604
:1038000000F051F820680169C943890609D4C168EC
:10381000C943890605D46FF0200101612046FFF7F6
:103820006DFA20680169C943C90209D4C168C94356
:10383000C90205D46FF4801101612046FFF7F0FA48
:1038400020680169C943890209D4C168C943890252
:1038500005D46FF4001101612046FFF7DFFA2068FC
:103860000169C943490209D4C168C943490205D461
:103870006FF4800101612046FFF7D0FB20680169E9
:10388000C94309020BD4C168C943090207D46FF4C4
:10389000000101612046BDE87040FFF71DBC70BD0E
:1038A0007047704770477047FEE700002DE9F04110
:1038B000264C6189E088A1F11902904206DA801C49
:1038C000884203D881B2022005F026F81F4D4FF43C
:1038D000C866343DE888B04207D26989801C8842B6
:1038E00003D881B2022004F065FF6089E1881938AD
:1038F0004FF4AF6781420FDBE888B0420CD3134925
:103900006839C888B84207D84989801C884203D8DA
:1039100081B2022004F094FE6089E1881938814266
:1039200011DBE888B0420ED308499C39C888B842F8
:1039300009D84989801C884205D8BDE8F04181B288
:10394000022004F0CBBDBDE8F08100006406002039
:1039500000EB8100006E00F0F84070478068C0F313
:10396000C00070478068C0F3800070478068C0F373
:1039700080007047C06810F4406F01D0002070478D
:1039800001207047042303EAD15310B5184443695A
:10399000C1F3045107248C40A3438A40134343617D
:1039A00010BD00EB8100016E21F000411143016662
:1039B0007047000030B58BB0002408940994202192
:1039C00068460A94FCF72BFC18484FF0A0410425E8
:1039D000C0E900148460C4600461C0E9054504774F
:1039E00044770121016280F824404FF4F862C262FA
:1039F0008A02026380F83810C46380F84040FDF703
:103A000069FA08A909480894FCF724FE08480090C0
:103A10000620019002907F200594CDE903056946B8
:103A20000248FCF7C3FE0BB030BD0000640000206C
:103A3000002090B630B589B020216846FCF7EFFB36
:103A4000164815490024C0E900148460C4600425A8
:103A50000461C0E90545047744770121016280F8DB
:103A600024404FF4F862C2628A02026380F8381080
:103A7000C46380F84040FDF72DFA09480090062005
:103A8000019002907F200594CDE903056946034823
:103A9000FCF78CFE09B030BD00010050D0000020C2
:103AA000000029C330B58BB000240894099420216C
:103AB00068460A94FCF7B3FB184817490425C0E987
:103AC00000148460C4600461C0E90545047744774C
:103AD0000121016280F824404FF4F862C2628A0238
:103AE000026380F83810C46380F84040FDF7F2F9B3
:103AF00008A90A480894FCF7ADFD09480090062083
:103B0000019002907F200594CDE9030569460348A2
:103B1000FCF74CFE0BB030BD000400503C0100200F
:103B2000002098B630B589B020216846FCF777FBB5
:103B3000164815490024C0E900148460C4600425B7
:103B40000461C0E90545047744770121016280F8EA
:103B500024404FF4F862C2628A02026380F838108F
:103B6000C46380F84040FDF7B5F90948009006208D
:103B7000019002907F200594CDE903056946034832
:103B8000FCF714FE09B030BD00060050A80100206B
:103B90002000F094194808B5816C41F0040181645B
:103BA000816C01F004010091816C41F0010181649C
:103BB000806C002200F00100009011460B20FDF700
:103BC000C5FF0B20FDF7B4FF002211460C20FDF7C6
:103BD000BDFF0C20FDF7ACFF002211460D20FDF7C4
:103BE000B5FF0D20FDF7A4FF002211460E20FDF7C2
:103BF000ADFFBDE808400E20FDF79ABF001002405F
:103C00002DE9F04786B014216846FCF708FB4F48C1
:103C1000C16C41F00401C164C16C01F00401059163
:103C2000C16C41F02001C164C16C01F0200105911B
:103C3000C16C41F00101C164C16C01F00101059149
:103C4000C16C41F00201C164C06C012200F00200AD
:103C5000DFF8FC805403059021464046FDF707FF3E
:103C60006600002231464046FDF701FF41F64C0751
:103C70004FF0904A012239465046FDF7F8FEDFF832
:103C8000D49000224FF4A0514846FDF7F0FE0122E7
:103C90004CF280214846FDF7EAFE009401240025FD
:103CA000694640460194CDE90245FDF7F7FD0096CF
:103CB000CDE90145694640460395FDF7EFFD01AAB0
:103CC0000226009782E8700069465046FDF7E6FD3F
:103CD000214F0620CDE90007694602944846FDF7CA
:103CE000DDFD4FF4A450CDE9000469464846CDE916
:103CF0000245FDF7D3FD4FF442408DE8710069465F
:103D00004846FDF7CBFDA002CDE9000769460294C5
:103D10005046FDF7C3FD002211460720FDF716FFB0
:103D20000720FDF705FF002211460820FDF70EFFD2
:103D30000820FDF7FDFE002211462820FDF706FFB2
:103D40002820FDF7F5FE06B0BDE8F0870010024020
:103D50000008004800040048000021102DE9F04749
:103D6000164C40274FF00808C4F81080124E00256A
:103D7000A760C4E900654FF0010984F81490A561BB
:103D800038034FF4404AE562C4E9090A2046FDF7CA
:103D90002FFF2046FDF70CFFC4F81080A760C4E990
:103DA000006584F81490A561C4E9095A2046E562CB
:103DB000BDE8F047FDF71CBF0003014014020020DE
:103DC0002DE9F047164C40274FF00808C4F8108042
:103DD000124E0025A760C4E900654FF0010984F880
:103DE0001490A56138034FF4404AE562C4E9090A1A
:103DF0002046FDF7FDFE2046FDF7DAFEC4F81080F0
:103E0000A760C4E9006584F81490A561C4E9095A63
:103E10002046E562BDE8F047FDF7EABE0403014035
:103E2000500200202DE9F047164C40274FF00408BF
:103E3000C4F81080124E0025A760C4E900654FF059
:103E4000010984F81490A56138034FF4404AE562F3
:103E5000C4E9090A2046FDF7CBFE2046FDF7A8FE7F
:103E6000C4F81080A760C4E9006584F81490A561C7
:103E7000C4E9095A2046E562BDE8F047FDF7B8BE3F
:103E8000080301408C0200202DE9F047164C402722
:103E90004FF00808C4F81080124E0025A760C4E94E
:103EA00000654FF0010984F81490A56138034FF4C0
:103EB000404AE562C4E9090A2046FDF799FE20461A
:103EC000FDF776FEC4F81080A760C4E9006584F8A9
:103ED0001490A561C4E9095A2046E562BDE8F0479F
:103EE000FDF786BE0C030140C80200200B480A49BA
:103EF0004FF4E062016000214160C0E902120161FB
:103F000041618161016207224162C0E90A120163D5
:103F10004163FEF795BD0000003C00400403002013
:103F200010B5A0B024216846FCF779F900241C9450
:103F30001D94182116A81E94FCF771F9342109A8C4
:103F4000FCF76DF91B481A49C0E900142021C0E9AB
:103F500002410461446184610320CDE90004012031
:103F6000CDE90204CDE90404CDE9060408906946D0
:103F70001048FFF775F91C941D941CA90D481E9458
:103F8000FFF74EF84FF40050CDE9164018948DF825
:103F900064401A9416A907481B94FEF717FF109463
:103FA00009A904481494FEF7ABFE20B010BD000030
:103FB000002C01406803002010B592B0242168460F
:103FC000FCF72DF900240F941094182109A81194DE
:103FD000FCF725F916484FF08041C0E90014202174
:103FE000C0E90241046184610320CDE9000401209D
:103FF000CDE90204CDE90404CDE906040890694640
:104000000B48FFF72DF90F940FA909481194FFF7FA
:1040100007F84FF40050CDE909400B948DF830407B
:104020000D9409A902480E94FEF7D0FE12B010BDFF
:10403000B403002010B592B024216846FCF7EFF8D5
:1040400000240F941094182109A81194FCF7E7F8A4
:1040500017481649C0E900142021C0E90241046153
:1040600084610320CDE900040120CDE90204CDE9FB
:104070000404CDE90604089069460D48FFF7F0F8FE
:104080000F940FA90A481194FEF7CAFF4FF400508D
:10409000CDE909400B948DF830400D9409A90448EE
:1040A0000E94FEF793FE12B010BD00000004004015
:1040B000000400203EB500240F48009401940D4DEB
:1040C00002941F210560C0E9011440F2E7318461C8
:1040D000C160FFF702F80094694607480294FEF7B2
:1040E0009FFF286840F001002860E86840F0010068
:1040F000E8603EBD001000404C04002010B5A0B0A8
:1041000024216846FCF78BF800241C941D94182188
:1041100016A81E94FCF783F8342109A8FCF77FF851
:104120001B481A49C0E900142021C0E9024104617A
:10413000446184610320CDE900040120CDE902043B
:10414000CDE90404CDE90604089069461048FFF75C
:1041500087F81C941D941CA90D481E94FEF760FF5F
:104160004FF40050CDE9164018948DF864401A942D
:1041700016A907481B94FEF729FE109409A90448C4
:104180001494FEF7BDFD20B010BD000000340140C6
:10419000E4040020FEE77047704700000148FEF786
:1041A000D1BB0000040300200168C968026C1180C3
:1041B000016C891C0164B0F84610491EA0F8461035
:1041C000B0F84610002909D101684A6822F040027F
:1041D0004A60C18F002901D100F071B87047B0F872
:1041E0004630026C0168012B13D9C9681180016C3B
:1041F000891C0164B0F84610891EA0F84610B0F87A
:10420000461001290FD101684A6842F480524A6081
:1042100009E0097B1170016C491C0164B0F846107B
:10422000491EA0F84610B0F84610002909D10168CF
:104230004A6822F060024A60C18F002901D100F073
:104240003EB87047816B02680988D160816B891C18
:104250008163C18F491EC187C18F00290AD10168BE
:104260004A6822F080024A60B0F84610002901D165
:1042700000F025B87047C38F826B0168022B07D30B
:104280001288CA60816B891C8163C18F891E06E018
:1042900012780A73816B491C8163C18F491EC187E3
:1042A000C18F00290AD101684A6822F080024A6061
:1042B000B0F84610002901D100F001B8704710B5E0
:1042C0000446FDF7D9FB02462068416821F0200131
:1042D00041606421204600F024F818B1206E40F0BF
:1042E00020002066216E012029B184F85D0020465F
:1042F000FEF726FB10BD94F85D1084F85D000429DC
:10430000204602D0FEF7BEFC10BDFEF757FC10BDE4
:1043100010B5806A0021A0F84610C187FEF710FB97
:1043200010BDF8B515460E460B4600920446002215
:104330004FF4C05100F019F888B9334600228021AB
:104340002046009500F05CF848B9334600224FF44F
:10435000C0612046009500F008F8002804D0206EC7
:1043600040F0200020660320F8BD2DE9F0471D46EF
:1043700017460E4604464FF4C068DDF820900CE066
:10438000464501D107B9007B681C06D0FDF774FBD8
:10439000A0EB0900A84208D23DB1206881683140F5
:1043A000B942EDD10020BDE8F0872068416821F0D6
:1043B000E00141606068B0F5827F0BD1A068B0F584
:1043C000004F02D0B0F5806F04D12068016821F061
:1043D00040010160A06AB0F5005F09D12068016862
:1043E00021F4005101602068016841F4005101602E
:1043F000012084F85D00002084F85C000320D2E7EF
:104400002DE9F0411D4617460E460446DDF818809A
:1044100008E0681C06D0FDF72FFBA0EB0800A842BF
:104420000BD255B12068806836EA000030D00020F9
:10443000B842EED10020BDE8F0812068416821F04B
:10444000E00141606068B0F5827F0BD1A068B0F5F3
:10445000004F02D0B0F5806F04D12068016821F0D0
:1044600040010160A06AB0F5005F09D120680168D1
:1044700021F4005101602068016841F4005101609D
:10448000012084F85D00002084F85C000320D2E75E
:104490000120CDE77047FDF7F5BA00B5A9B0382186
:1044A0006846FBF7BCFE142123A8FBF7B8FE542195
:1044B0000EA8FBF7B4FE4FF40070FDF74DFD02208F
:1044C000C1010391402104910090079008900821B8
:1044D000CDE909010B900C900D906846FEF72AF883
:1044E0000F202390032024900020259026902790D1
:1044F000012123A8FDF70EFF4FF4C0300E904FF0BE
:1045000000501F90800020900EA8FDF783FD29B079
:1045100000BD00000548016841F4700101600349D5
:104520004FF00060803908607047000088ED00E0BF
:104530000148FFF7B7B80000680300200148FFF703
:10454000B1B800006803002010B50448FFF7AAF8CE
:10455000BDE810400248FFF7A5B80000680300203E
:104560007C05002010B50448FFF79CF8BDE810401A
:104570000248FFF797B800006803002030050020CC
:104580000148FFF78FB80000B40300200148FFF78F
:1045900089B800000004002010B50748FFF782F832
:1045A0000A2000F033FA142000F07CF9BDE8104036
:1045B000132000F0A3BD00004C0400202DE9F047BB
:1045C000DFF85091544C554DD9F80010544E491C09
:1045D000C9F800106069A0616869A861514F7069ED
:1045E000B0617869DFF84081B861504898F80310ED
:1045F00088F80210C17881704D48FFF753F84D4894
:10460000007801280CD1DFF830A180215046FDF759
:1046100029FA012804D1002280215046FDF727FA0B
:1046200046480078012828D1DFF814A19AF8012023
:104630002AB1012A03D0022A01D0032A1DD198F8F9
:10464000058000213F481B234FF0900CB8F1000F6C
:1046500003D0B8F1010F0AD00FE080F800C0022AA1
:10466000417001D19AF803108170C37005E080F8A1
:1046700000C0417081709B21C170D9F80010642086
:10468000B1FBF0F200FB1212322A32D0B1FBF0F291
:1046900000FB121100292AD1E1882289891A91FB95
:1046A000F0F2A262E9882B89C91A91FBF0F1A962A4
:1046B000F388B6F808C0A3EB0C0393FBF0F3B362E6
:1046C000B7F806C0B7F80880ACEB080C9CFBF0F01C
:1046D000B862D4F82CC0A2EB0C022263EA6A891AF1
:1046E0002963F16A591A3163F96A401A3863BDE8DF
:1046F000F087E0882081E8882881F0883081F88878
:104700003881A06AE062A86AE862B06AF062B86ABA
:10471000F862ECE720000020C8050020FC0500201E
:1047200030060020640600203F00002039000020F1
:104730009804002000000020000400480100002030
:10474000340000200F0000200148FEF7ABBF00003E
:10475000E40400200148FEF7A5BF0000E4040020A7
:104760002DE9F04F02682A4B2A4E2B4FDFF8ACC0E0
:104770002B4C2C4D4FF0804B98420BD0584509D014
:10478000B04207D0B84205D0604503D0A04201D066
:10479000A84204D122F070084A6842EA0802DFF811
:1047A0008880DFF88890DFF888A0984211D05845BB
:1047B0000FD0B0420DD0B8420BD0604509D0A04216
:1047C00007D0404505D0484503D0504501D0A84208
:1047D00003D122F44076CA6832434E6922F0800247
:1047E000324302608A68C2620A688262984209D0D3
:1047F000A04207D0404505D0484503D0504501D0E0
:10480000A84201D10969016301214161BDE8F08F2E
:10481000002C01400004004000080040000C004053
:10482000003401400050014000400140004401407C
:104830000048014010B501F01F030121046A9940AE
:104840008C430462016A9A401143016210BD10B5A5
:10485000846842EA032224F47F440A4322438260AC
:1048600010BDFEE70907090E002804DB00F1E02077
:1048700080F80014704700F00F0000F1E02080F88D
:10488000141D704702E008C8121F08C1002AFAD19F
:1048900070477047002001E001C1121F002AFBD1C0
:1048A000704700002DE9F04107464B4800264B4C6D
:1048B00001794FF4FA68062901D007291CD1416912
:1048C00041450AD9016A09B9216A0162416A226A2D
:1048D00011444162C169491CC161C169426A05460E
:1048E000B2FBF1F26261006AA061B94204D103F047
:1048F000D3FDEE612E626E623748343001790629AD
:1049000001D007291CD1416941450AD9016A09B979
:10491000216A0162416A226A11444162C169491CEB
:10492000C161C169426A0546B2FBF1F26261006A87
:10493000A061B94204D103F05FFEEE612E626E62A7
:10494000254868300179062901D007291ED141691F
:10495000B1F57A6F0AD9016A09B9216A0162416A1F
:10496000226A11444162C169491CC161C169426A3C
:104970000546B2FBF1F26261006AA061B1EB870FFC
:1049800004D103F0F3FEEE612E626E62124D9C358F
:104990002879062801D007281CD1686940450AD922
:1049A000286A08B9206A2862686A216A084468622D
:1049B000E869401CE861E869696AB0EB870FB1FB00
:1049C000F0F16161296AA16104D103F083FFEE6116
:1049D0002E626E62BDE8F081C80500200000002054
:1049E00010B50021072003F079FD0021072003F016
:1049F00027FE0021072003F08FFFC820FCF788FE68
:104A00000021BDE81040072003F0D4BE2DE9F0419D
:104A1000064659480025594C01794FF4FA67032995
:104A200001D0042920D14169B9420AD9016A09B9E2
:104A3000216A0162416A226A11444162C169491CCA
:104A4000C161C169426A8046B2FBF1F26261006AEB
:104A5000A061B1EB460F07D103F01EFDC8F81C5052
:104A6000C8F82050C8F8245043483430017903294D
:104A700001D0042920D14169B9420AD9016A09B992
:104A8000216A0162416A226A11444162C169491C7A
:104A9000C161C169426A8046B2FBF1F26261006A9B
:104AA000A061B1EB460F07D103F0A6FDC8F81C507A
:104AB000C8F82050C8F824502F48683001790329DD
:104AC00001D0042921D14169B9420AD9016A09B941
:104AD000216A0162416A226A11444162C169491C2A
:104AE000C161426AC1698046B2FBF1F26261006A4B
:104AF000A06106EB8600814207D103F037FEC8F8BB
:104B00001C50C8F82050C8F82450DFF86C8008F119
:104B10009C0898F80400032801D0042829D1D8F86B
:104B20001400B84210D9D8F8200010B9206AC8F88B
:104B30002000D8F82400216A0844C8F82400D8F8D6
:104B40001C00401CC8F81C00D8F81C00D8F8241021
:104B5000B0EB860FB1FBF0F16161D8F82010A161D4
:104B600007D103F0B7FEC8F81C50C8F82050C8F8A9
:104B70002450BDE8F0810000C8050020000000209E
:104B80002DE9F05F984A917802297DD802F10F044F
:104B900090204FF00009207049EA411184F80290FA
:104BA0004FF00B0B41F0100084F803B08F4D607094
:104BB000924680212846FCF755FF012804D10022A7
:104BC00080212846FCF753FF894D0021042003F083
:104BD000F1FD28790528F8D16420FCF799FD002122
:104BE000032003F0E7FD28790528F8D16420FCF7BD
:104BF0008FFD7F4E683E0021042003F06FFC30796A
:104C00000528F8D16420FCF783FDB046002103207D
:104C100003F064FC98F804000528F7D16420FCF741
:104C200077FD734E343E0021042003F009FD3079F6
:104C30000528F8D16420FCF76BFD0021032003F068
:104C4000FFFC30790528F8D16420FCF761FD684F3E
:104C500034370021042003F05FFE38790528F8D1AD
:104C60006420FCF755FD0021032003F055FE387940
:104C70000528F8D16420FCF74BFD4FF4FA7140464B
:104C8000B8F80A208B0000E09EE0A2F6B8228A4223
:104C900028D8D0F814C09C4524D8B6F80AC0ACF681
:104CA000693C8C451ED8D6F814C09C451AD8B5F876
:104CB0000AC0ACF61C4C8C4514D8D5F814C09C45E1
:104CC00010D8B7F80AC0ACF68C2C8C450AD8D7F8A7
:104CD00014C09C4506D884F8019084F8029084F8AA
:104CE00003B06CE09AF802C0BCF1020F71D094F8E6
:104CF00001C04CF0100C00BF84F801C08A4203D8F8
:104D0000D0F814C09C4512D994F802C04CF0010CA4
:104D100084F802C0D8F81400984202D94CF0100070
:104D2000A0708A4203D9607840F0010060707089F9
:104D3000A0F66930884202D872699A420FD9A278E7
:104D400042F00202A27076699E4202D942F020022D
:104D5000A270884203D9607840F0020060706889D0
:104D6000A0F61C40884202D86A699A420FD9A278FC
:104D700042F00402A2706D699D4202D942F04002E5
:104D8000A270884203D9607840F00400607078898E
:104D9000A0F68C20884202D87A699A420FD9A2786C
:104DA00042F00802A2707D699D4202D942F0800261
:104DB000A270884203D9607840F0080060709AF8C9
:104DC0000210491C8AF80210BDE8F05FC820FCF709
:104DD0009FBC94F803C04CF0800C84F803C094F896
:104DE00001C02CF0100C87E70000002000040048F0
:104DF000300600200028034801D0FEF7F9B9FEF77D
:104E000017BA0000980400202DE9F05FB84F002683
:104E1000A7F5F8744FF09008B64D4FF04B0904F128
:104E2000340A04F1680B87E0BA78022A02D0012A1A
:104E300041D07AE0FA78022A77D1884207D2618994
:104E4000801C884203D881B2022003F047FBBAF8E5
:104E500006007989884208D2BAF80A10801C884274
:104E600003D881B2022003F0EBFBA348FA89C18882
:104E7000914207D24089891C814203D889B202201D
:104E800003F04AFDBBF8060040F24C4290420CD3BE
:104E9000E38840F63402934247D9BAF80630934289
:104EA00043D940F6980290423FD2BA8990423CD210
:104EB000BBF80A1032E0FA78012A36D1884207D2CC
:104EC0006189801C884203D881B2022003F006FB6E
:104ED000BAF806007A89904208D2BAF80A10801C03
:104EE000884203D881B2022003F0AAFB8248FA89E3
:104EF000C188914207D24089891C814203D889B276
:104F0000022003F009FDBBF80A10BBF80600A1F56A
:104F10004872904209DABA89904206D2801C8842CF
:104F200003D881B2022003F045FC85F80080AE7002
:104F300085F8039020206870E08839898842FFF462
:104F400073AFBAF806207B899A42F8D36A4AFB8984
:104F5000D2889A42F3D3674F10200F3F797BE1B399
:104F600085F800806870AE7085F80390F6E7F878F1
:104F7000022802D0012873D057E0BBF80600411F79
:104F800010D44FF6DC73994202DDB1F5803F09DBA6
:104F9000192803D2BBF80E00192803D989B20120C1
:104FA00003F008FCBBF80600B0F5C87F3DD8E088E8
:104FB0000146052810D44FF6DC72481F904202DDEE
:104FC000B0F5803F08DB192902D2E189192903D9FC
:104FD00081B2012003F082FA00E02FE0BAF8060067
:104FE000411F0ED44FF6DC73994202DDB1F5803FCC
:104FF00007DB192803D2BAF80E00192801D989B2A3
:1050000071E03D4AD088411F0FD44FF6DC739942BE
:1050100002DDB1F5803F08DB192802D2D0891928BA
:1050200003D989B2012003F077FC85F800806E7007
:10503000AE7085F80390787B00280ED1E08819289F
:1050400095D8BAF80600192891D8BBF80600192897
:105050008DD82948C088192889D8BDE8F09FFFE776
:10506000BBF8061058460A46052911D40146501FC0
:105070004FF6DC73984202DDB0F5803F08DB192A59
:1050800002D2C989192903D981B2012003F092FB08
:10509000BBF80600B0F57A7FC7D8E088411F0FD46F
:1050A0004FF6DC72914202DDB1F5803F08DB192832
:1050B00002D2E089192803D989B2012003F00EFA3F
:1050C000BAF8061005299CD44FF6DC73481F9842A5
:1050D00002DDB0F5803F94DB192903D2BAF80E1037
:1050E00019298ED981B2012003F0AAFA89E70000BC
:1050F000B80700200F000020640600202DE9F047CB
:105100005E4D0646192728794FF4FA694FF00008DA
:10511000012801D0022824D158496B694889C988DF
:1051200002467D384B4508D97D2901D9814204DBEF
:10513000AB6A13B9EB695B1CEB61EB69B34210D14D
:105140007D2901D8EF8002E0814200DBEA80E88817
:10515000E88103F0A1F9C5F81C80C5F82080C5F8E6
:105160002480464C34342079012801D0022826D1ED
:10517000606948450BD9E0887D2803D961897D396C
:10518000884204DBA06A10B9E069401CE061E06974
:10519000B04214D1E0887D2801D8E78005E0698914
:1051A0007D39884201DB6089E080E088E08103F09E
:1051B00023FAC4F81C80C4F82080C4F824802F4C43
:1051C00068342079012801D0022826D16069484539
:1051D0000BD9E0887D2803D961897D39884204DBB9
:1051E000A06A10B9E069401CE061E069B04214D1E6
:1051F000E0887D2801D8E78005E069897D3988420B
:1052000001DB6089E080E088E08103F0AFFAC4F858
:105210001C80C4F82080C4F82480184C9C34207969
:10522000012801D0022827D1606948450BD9E088C0
:105230007D2803D961897D39884204DBA06A10B9D1
:10524000E069401CE061E069B0EB460F14D1E088F2
:105250007D2801D8E78005E069897D39884201DB36
:105260006089E080E088E08103F034FBC4F81C80B2
:10527000C4F82080C4F82480BDE8F087C805002069
:105280002DE9F05FC84DDFF81CA340F634084FF05D
:105290003B0BAAF10F0405F1340605F19C0947E028
:1052A0000921217181B2022003F018F9708919389F
:1052B00081B2022003F0C4F9B9F80A004F46193848
:1052C00081B2022003F028FBE98841450ED9F1881C
:1052D00041450BD9B44840F698016830C0888842EF
:1052E00004D240F68C21022003F064FA90218AF85F
:1052F000001000218AF802108AF803B020218AF8F1
:105300000110C820FCF704FAA86A78B9B06A68B935
:10531000B86A58B9A4486830816A39B9C088322857
:105320001ED240F68C21022003F044FA6079B8B115
:105330006889E98819388142B2DB7189F2881939A4
:105340008A42ADDB984940F628226831C9889142EB
:10535000A6D3B9F80A10B9F8062019398A429FDB9A
:10536000914FB5F806806837FA88607900287DD0BB
:1053700090208AF80000102000EE108A8AF80100C0
:105380006889B8EE401A00EE100A5146B8EE400A9D
:10539000C1EE000A9FED850ADFF808C260EE800AC0
:1053A000FCEEE00A10EE900AC0B200EE900AF8EEB1
:1053B000601AC4ED091AF08800EE900A7089B8EE00
:1053C000601A00EE900AB8EE602AC1EE020A60EEA2
:1053D000800AFCEEE00A10EE900AC0B200EE900ADD
:1053E000B8EE601A00EE902A84ED0A1A7889B8EEB9
:1053F000602A00EE900A31EE811AF8EE602AC2EEC1
:10540000220A60EE800AFCEEE00A10EE900AC0B2BA
:1054100000EE900AF8EE600AC4ED0B0AB9F8060037
:1054200071EE200A02EE100AB9F80A00B8EE423A0C
:1054300002EE100AF8EE422A83EE222A22EE000A39
:10544000BCEEC00A10EE100AC0B200EE100AB8EEB0
:10545000400A84ED0C0A70EE800AB5EE000A20EED8
:10546000800ABCEEC00A10EE100A00E08AE00CF1DF
:10547000360C8CF8010010EE100A4BEAC010C87010
:1054800010EE100AC0F345008AF80200A07B002845
:105490003FF46BAF0020607174E0F888411F0FD4B7
:1054A0004FF6DC72914202DDB1F5803F08DB19282E
:1054B00002D2F889192803D989B2012003F07AF9B8
:1054C000F888B0F5C87F3BD8E888411F0FD44FF665
:1054D000DC72914202DDB1F5803F08DB192802D26F
:1054E000E889192803D989B2012002F0F7FFF18871
:1054F000052910D44FF6DC72481F904202DDB0F54A
:10550000803F08DB192902D2F189192903D981B218
:10551000012003F095F8B9F80600421F10D44FF6A9
:10552000DC739A4202DDB2F5803F09DB192803D211
:10553000B9F80E00192803D991B2012003F0ECF953
:1055400090208AF8000000208AF801008AF8020002
:105550008AF803B06079002821D1A07900281ED1F3
:10556000E07900281BD1207A002818D1607A002821
:1055700015D1A07A002812D1E07A00280FD1207B23
:1055800000280CD1E888322887D8F088322884D8BF
:10559000F888322881D8B9F806003228F4D8BDE856
:1055A000F09F00000F000020C80500200000C84246
:1055B0002DE9F05FD24EDFF844A306F168054FF401
:1055C000C8674FF0000BAAF10F0906F1340805F186
:1055D000340467E06189E088A1F11902904206DA9B
:1055E000801C884203D881B2022003F095F9E88834
:1055F000B84207D26989801C884203D881B2022050
:1056000003F0D8F86089E1881938814210DBE88816
:10561000B8420DD3B8F80600B0F5AF6F08D8B8F8A7
:105620000A10801C884203D881B2022003F008F8D7
:105630006189E088193988420EDBE888B8420BD3CB
:10564000F088B0F5AF6F07D87189801C884203D805
:1056500081B2022002F042FF90218AF800108AF8FD
:1056600002B03B218AF8031020218AF80110F1884A
:1056700040F2E240814212D9B8F8062082420ED9A7
:10568000EA8882420BD9E288824208D9B06A30B9EE
:10569000D8F8280018B9A06A08B9A86AA8B199F87A
:1056A000060090B1F18840F25F50814292D3B8F881
:1056B000061081428ED3E88840F22761884289D360
:1056C0006089E1883238814284DB4F46F188EA887C
:1056D000B146B879F0B300EE101A90238AF8003082
:1056E0003B26B8EE400A102350468AF80130DFED21
:1056F000850A80EE201A9FED840A21EE001ABCEE86
:10570000C11A11EE103ADBB201EE103AF8EE411A6E
:10571000C7ED091AB8F8063001EE103AB8EE412A82
:1057200082EE201A61EE000A01EE102AFCEEE00A79
:10573000B8EE411A10EE903ADBB200EE903AF8EE75
:10574000600AC7ED0A0ADFED712A81EE222A22EEF5
:10575000001A00E049E0BCEEC11A71EEA00ADFF8C1
:105760009CC111EE103A0CF1360CDBB201EE103A8E
:10577000B8EE411A87ED0B1AE38870EE810A02EE4B
:10578000103A6389F8EE422A193302EE103AB8EE65
:10579000423A82EE832A22EE000ABCEEC00A10EEE4
:1057A000103ADBB200EE103AB8EE400A87ED0C0A70
:1057B00070EE800AB5EE000A20EE800ABCEEC00A48
:1057C00010EE103A8CF8013010EE103A46EAC3138E
:1057D000C37010EE103AC3F345038AF80230B87B69
:1057E00000283FF476AF87F806B04E46F08832289E
:1057F00009D8B8F80600322805D8E888322802D837
:10580000E088322877D9E988052910D44FF6DC7270
:10581000481F904202DDB0F5803F08DB192902D213
:10582000E989192903D981B2012002F0C3FFE88870
:10583000B0F5C87F3CD8F088411F0FD44FF6DC721A
:10584000914202DDB1F5803F08DB192802D2F089D0
:10585000192803D989B2012002F040FEB8F80600E9
:10586000421F10D44FF6DC739A4202DDB2F5803F3E
:1058700009DB192803D2B8F80E00192803D991B210
:10588000012002F0DDFEE0880146052810D44FF625
:10589000DC72481F904202DDB0F5803F08DB192919
:1058A00002D2E189192903D981B2012003F034F829
:1058B00090218AF800108AF801B08AF802B03B21E2
:1058C0008AF803107879002815D1B879002812D108
:1058D000F87900280FD1387A00280CD1787A00287E
:1058E00009D1B87A002806D1F87A002803D1387B8C
:1058F00000283FF47BAFBDE8F09F00000F000020C0
:10590000C80500200000AF440000C8420000C844A1
:105910002DE9F05FA44EDFF88C924FF4C8644FF08D
:10592000000A4FF03B0BA9F10F0806F1340706F10E
:10593000680535E0E888A0420AD26989801C88425F
:1059400021D881B2022002F035FFE888A0421AD3A4
:10595000F888B0F5AF6F0AD87989801C884206D8DC
:1059600081B2022002F06CFEE888A0420BD3F088DE
:10597000B0F5AF6F07D87189801C884203D881B217
:10598000022002F0ABFD902189F8001089F802A0F6
:1059900089F803B0202189F8011098F8070060B158
:1059A000F18840F25F508142C4D3F9888142C1D36B
:1059B000E88840F227618842BCD3F288EB884446ED
:1059C000E07900287ED000EE102A902089F80000AF
:1059D000F8EE400A1020494689F801009FED731A3D
:1059E00080EE810ADFED720A20EE200ABCEEC00ACA
:1059F00010EE100AC0B200EE100AB8EE400A84EDB4
:105A0000090AF88801EE900AB8EE612AC2EE011A7E
:105A100021EEA01A01EE903ABCEEC11AB8EE612A4E
:105A200011EE100AC0B201EE100AB8EE411A84ED70
:105A30000A1ADFED602A30EE010ADFF86881C2EE53
:105A4000221A08F1360861EEA01AFCEEE11A11EEF6
:105A5000900AC0B201EE900A5348F8EE611A9C30E9
:105A6000C4ED0B1AC08830EE210A02EE100AF8EEDF
:105A7000422A82EEA22A62EE200AFCEEE00A10EE32
:105A8000900AC0B200EE900AF8EE600AC4ED0C0A6B
:105A900070EE200AB5EE000A20EE800ABCEEC00AC5
:105AA00010EE100A88F8010010EE100A4BEAC01040
:105AB000C87010EE100AC0F3450089F80200A07B00
:105AC000002800E062E03FF47BAF84F807A05DE0CF
:105AD000E888411F0FD44FF6DC72914202DDB1F528
